{
  "_format": "hh-sol-artifact-1",
  "contractName": "MultisigFactory",
  "sourceName": "contracts/Multisig.sol",
  "abi": [
    {
      "anonymous": false,
      "inputs": [
        {
          "indexed": false,
          "internalType": "uint256",
          "name": "date",
          "type": "uint256"
        },
        {
          "indexed": false,
          "internalType": "address",
          "name": "walletOwner",
          "type": "address"
        },
        {
          "indexed": false,
          "internalType": "address",
          "name": "multiSigAddress",
          "type": "address"
        }
      ],
      "name": "multisigInstanceCreated",
      "type": "event"
    },
    {
      "inputs": [
        {
          "internalType": "address[]",
          "name": "_owners",
          "type": "address[]"
        },
        {
          "internalType": "uint256",
          "name": "_threshold",
          "type": "uint256"
        }
      ],
      "name": "createMultiSig",
      "outputs": [],
      "stateMutability": "nonpayable",
      "type": "function"
    },
    {
      "inputs": [],
      "name": "getUserWallets",
      "outputs": [
        {
          "components": [
            {
              "internalType": "address",
              "name": "walletAddress",
              "type": "address"
            },
            {
              "internalType": "uint256",
              "name": "walletID",
              "type": "uint256"
            }
          ],
          "internalType": "struct MultisigFactory.UserWallets[]",
          "name": "walets",
          "type": "tuple[]"
        }
      ],
      "stateMutability": "view",
      "type": "function"
    },
    {
      "inputs": [
        {
          "internalType": "uint256",
          "name": "",
          "type": "uint256"
        }
      ],
      "name": "multisigInstances",
      "outputs": [
        {
          "internalType": "contract Multisig",
          "name": "",
          "type": "address"
        }
      ],
      "stateMutability": "view",
      "type": "function"
    },
    {
      "inputs": [
        {
          "internalType": "uint256",
          "name": "",
          "type": "uint256"
        }
      ],
      "name": "wallets",
      "outputs": [
        {
          "internalType": "address",
          "name": "walletAddress",
          "type": "address"
        },
        {
          "internalType": "uint256",
          "name": "walletID",
          "type": "uint256"
        }
      ],
      "stateMutability": "view",
      "type": "function"
    }
  ],
  "bytecode": "0x60806040526000805534801561001457600080fd5b50613e74806100246000396000f3fe60806040523480156200001157600080fd5b5060043610620000525760003560e01c806328442b4d146200005757806368e170a8146200008d5780637ad71f7214620000af578063d46a09f114620000e6575b600080fd5b6200007560048036038101906200006f919062000522565b62000106565b604051620000849190620005df565b60405180910390f35b6200009762000146565b604051620000a6919062000722565b60405180910390f35b620000cd6004803603810190620000c7919062000522565b62000244565b604051620000dd92919062000768565b60405180910390f35b620001046004803603810190620000fe91906200093b565b62000299565b005b600281815481106200011757600080fd5b906000526020600020016000915054906101000a900473ffffffffffffffffffffffffffffffffffffffff1681565b6060600360003373ffffffffffffffffffffffffffffffffffffffff1673ffffffffffffffffffffffffffffffffffffffff168152602001908152602001600020805480602002602001604051908101604052809291908181526020016000905b828210156200023b57838290600052602060002090600202016040518060400160405290816000820160009054906101000a900473ffffffffffffffffffffffffffffffffffffffff1673ffffffffffffffffffffffffffffffffffffffff1673ffffffffffffffffffffffffffffffffffffffff16815260200160018201548152505081526020019060010190620001a7565b50505050905090565b600181815481106200025557600080fd5b90600052602060002090600202016000915090508060000160009054906101000a900473ffffffffffffffffffffffffffffffffffffffff16908060010154905082565b60008282604051620002ab90620004c5565b620002b892919062000a5e565b604051809103906000f080158015620002d5573d6000803e3d6000fd5b5090506002819080600181540180825580915050600190039060005260206000200160009091909190916101000a81548173ffffffffffffffffffffffffffffffffffffffff021916908373ffffffffffffffffffffffffffffffffffffffff16021790555060005b8351811015620004695760006003600086848151811062000364576200036362000a92565b5b602002602001015173ffffffffffffffffffffffffffffffffffffffff1673ffffffffffffffffffffffffffffffffffffffff16815260200190815260200160002090508060405180604001604052808573ffffffffffffffffffffffffffffffffffffffff168152602001600054815250908060018154018082558091505060019003906000526020600020906002020160009091909190915060008201518160000160006101000a81548173ffffffffffffffffffffffffffffffffffffffff021916908373ffffffffffffffffffffffffffffffffffffffff160217905550602082015181600101555050508080620004609062000af0565b9150506200033e565b507f131a21debd61d4e35432834b9dec2854e4b4b125fb391ffcee71d6ea6b01185f4233836040516200049f9392919062000b3e565b60405180910390a1600080815480929190620004bb9062000af0565b9190505550505050565b6132c38062000b7c83390190565b6000604051905090565b600080fd5b600080fd5b6000819050919050565b620004fc81620004e7565b81146200050857600080fd5b50565b6000813590506200051c81620004f1565b92915050565b6000602082840312156200053b576200053a620004dd565b5b60006200054b848285016200050b565b91505092915050565b600073ffffffffffffffffffffffffffffffffffffffff82169050919050565b6000819050919050565b60006200059f62000599620005938462000554565b62000574565b62000554565b9050919050565b6000620005b3826200057e565b9050919050565b6000620005c782620005a6565b9050919050565b620005d981620005ba565b82525050565b6000602082019050620005f66000830184620005ce565b92915050565b600081519050919050565b600082825260208201905092915050565b6000819050602082019050919050565b6000620006358262000554565b9050919050565b620006478162000628565b82525050565b6200065881620004e7565b82525050565b6040820160008201516200067660008501826200063c565b5060208201516200068b60208501826200064d565b50505050565b60006200069f83836200065e565b60408301905092915050565b6000602082019050919050565b6000620006c582620005fc565b620006d1818562000607565b9350620006de8362000618565b8060005b8381101562000715578151620006f9888262000691565b97506200070683620006ab565b925050600181019050620006e2565b5085935050505092915050565b600060208201905081810360008301526200073e8184620006b8565b905092915050565b620007518162000628565b82525050565b6200076281620004e7565b82525050565b60006040820190506200077f600083018562000746565b6200078e602083018462000757565b9392505050565b600080fd5b6000601f19601f8301169050919050565b7f4e487b7100000000000000000000000000000000000000000000000000000000600052604160045260246000fd5b620007e5826200079a565b810181811067ffffffffffffffff82111715620008075762000806620007ab565b5b80604052505050565b60006200081c620004d3565b90506200082a8282620007da565b919050565b600067ffffffffffffffff8211156200084d576200084c620007ab565b5b602082029050602081019050919050565b600080fd5b6200086e8162000628565b81146200087a57600080fd5b50565b6000813590506200088e8162000863565b92915050565b6000620008ab620008a5846200082f565b62000810565b90508083825260208201905060208402830185811115620008d157620008d06200085e565b5b835b81811015620008fe5780620008e988826200087d565b845260208401935050602081019050620008d3565b5050509392505050565b600082601f83011262000920576200091f62000795565b5b81356200093284826020860162000894565b91505092915050565b60008060408385031215620009555762000954620004dd565b5b600083013567ffffffffffffffff811115620009765762000975620004e2565b5b620009848582860162000908565b925050602062000997858286016200050b565b9150509250929050565b600081519050919050565b600082825260208201905092915050565b6000819050602082019050919050565b6000620009db83836200063c565b60208301905092915050565b6000602082019050919050565b600062000a0182620009a1565b62000a0d8185620009ac565b935062000a1a83620009bd565b8060005b8381101562000a5157815162000a358882620009cd565b975062000a4283620009e7565b92505060018101905062000a1e565b5085935050505092915050565b6000604082019050818103600083015262000a7a8185620009f4565b905062000a8b602083018462000757565b9392505050565b7f4e487b7100000000000000000000000000000000000000000000000000000000600052603260045260246000fd5b7f4e487b7100000000000000000000000000000000000000000000000000000000600052601160045260246000fd5b600062000afd82620004e7565b91507fffffffffffffffffffffffffffffffffffffffffffffffffffffffffffffffff82141562000b335762000b3262000ac1565b5b600182019050919050565b600060608201905062000b55600083018662000757565b62000b64602083018562000746565b62000b73604083018462000746565b94935050505056fe60806040523480156200001157600080fd5b50604051620032c3380380620032c38339818101604052810190620000379190620004e3565b60008251141562000074576040517fbd8f717200000000000000000000000000000000000000000000000000000000815260040160405180910390fd5b815181118062000085575060008111155b15620000bd576040517fafa0f7ed00000000000000000000000000000000000000000000000000000000815260040160405180910390fd5b60005b8251811015620002aa576000838281518110620000e257620000e162000549565b5b60200260200101519050600073ffffffffffffffffffffffffffffffffffffffff168173ffffffffffffffffffffffffffffffffffffffff16141562000154576040517f7e4b1d7600000000000000000000000000000000000000000000000000000000815260040160405180910390fd5b600160008273ffffffffffffffffffffffffffffffffffffffff1673ffffffffffffffffffffffffffffffffffffffff16815260200190815260200160002060009054906101000a900460ff1615620001d9576040517f9fde231d00000000000000000000000000000000000000000000000000000000815260040160405180910390fd5b60018060008373ffffffffffffffffffffffffffffffffffffffff1673ffffffffffffffffffffffffffffffffffffffff16815260200190815260200160002060006101000a81548160ff0219169083151502179055506000819080600181540180825580915050600190039060005260206000200160009091909190916101000a81548173ffffffffffffffffffffffffffffffffffffffff021916908373ffffffffffffffffffffffffffffffffffffffff160217905550508080620002a190620005a7565b915050620000c0565b50806002819055505050620005f5565b6000604051905090565b600080fd5b600080fd5b600080fd5b6000601f19601f8301169050919050565b7f4e487b7100000000000000000000000000000000000000000000000000000000600052604160045260246000fd5b6200031e82620002d3565b810181811067ffffffffffffffff8211171562000340576200033f620002e4565b5b80604052505050565b600062000355620002ba565b905062000363828262000313565b919050565b600067ffffffffffffffff821115620003865762000385620002e4565b5b602082029050602081019050919050565b600080fd5b600073ffffffffffffffffffffffffffffffffffffffff82169050919050565b6000620003c9826200039c565b9050919050565b620003db81620003bc565b8114620003e757600080fd5b50565b600081519050620003fb81620003d0565b92915050565b600062000418620004128462000368565b62000349565b905080838252602082019050602084028301858111156200043e576200043d62000397565b5b835b818110156200046b5780620004568882620003ea565b84526020840193505060208101905062000440565b5050509392505050565b600082601f8301126200048d576200048c620002ce565b5b81516200049f84826020860162000401565b91505092915050565b6000819050919050565b620004bd81620004a8565b8114620004c957600080fd5b50565b600081519050620004dd81620004b2565b92915050565b60008060408385031215620004fd57620004fc620002c4565b5b600083015167ffffffffffffffff8111156200051e576200051d620002c9565b5b6200052c8582860162000475565b92505060206200053f85828601620004cc565b9150509250929050565b7f4e487b7100000000000000000000000000000000000000000000000000000000600052603260045260246000fd5b7f4e487b7100000000000000000000000000000000000000000000000000000000600052601160045260246000fd5b6000620005b482620004a8565b91507fffffffffffffffffffffffffffffffffffffffffffffffffffffffffffffffff821415620005ea57620005e962000578565b5b600182019050919050565b612cbe80620006056000396000f3fe60806040526004361061011f5760003560e01c80639ace38c2116100a0578063d0e30db011610064578063d0e30db014610415578063df91143f1461041f578063e44158801461045c578063ec096f8d14610485578063ee22610b146104ae5761011f565b80639ace38c21461032c578063a0e67e2b1461036d578063b1e130fc14610398578063b7f05836146103c1578063c6107127146103ec5761011f565b806333ea3dc8116100e757806333ea3dc81461022f57806342cde4e814610270578063735af9bd1461029b57806386469614146102da578063925c8db2146103035761011f565b8063025e7c271461012457806308e4430914610161578063242232d11461019e5780632e7700f0146101c75780632f54bf6e146101f2575b600080fd5b34801561013057600080fd5b5061014b60048036038101906101469190612255565b6104d7565b60405161015891906122c3565b60405180910390f35b34801561016d57600080fd5b506101886004803603810190610183919061230a565b610516565b6040516101959190612365565b60405180910390f35b3480156101aa57600080fd5b506101c560048036038101906101c09190612255565b610545565b005b3480156101d357600080fd5b506101dc6107fe565b6040516101e9919061238f565b60405180910390f35b3480156101fe57600080fd5b50610219600480360381019061021491906123aa565b61080b565b6040516102269190612365565b60405180910390f35b34801561023b57600080fd5b5061025660048036038101906102519190612255565b61082b565b604051610267959493929190612470565b60405180910390f35b34801561027c57600080fd5b5061028561093e565b604051610292919061238f565b60405180910390f35b3480156102a757600080fd5b506102c260048036038101906102bd9190612255565b610944565b6040516102d1939291906124ca565b60405180910390f35b3480156102e657600080fd5b5061030160048036038101906102fc9190612255565b61098b565b005b34801561030f57600080fd5b5061032a60048036038101906103259190612255565b610c44565b005b34801561033857600080fd5b50610353600480360381019061034e9190612255565b610edc565b604051610364959493929190612470565b60405180910390f35b34801561037957600080fd5b50610382610fd7565b60405161038f91906125bf565b60405180910390f35b3480156103a457600080fd5b506103bf60048036038101906103ba9190612255565b611065565b005b3480156103cd57600080fd5b506103d661131b565b6040516103e391906125e1565b60405180910390f35b3480156103f857600080fd5b50610413600480360381019061040e9190612255565b6113a5565b005b61041d61165b565b005b34801561042b57600080fd5b506104466004803603810190610441919061230a565b6116ad565b6040516104539190612365565b60405180910390f35b34801561046857600080fd5b50610483600480360381019061047e919061274b565b6116dc565b005b34801561049157600080fd5b506104ac60048036038101906104a7919061285c565b611865565b005b3480156104ba57600080fd5b506104d560048036038101906104d09190612255565b611a66565b005b600081815481106104e757600080fd5b906000526020600020016000915054906101000a900473ffffffffffffffffffffffffffffffffffffffff1681565b60076020528160005260406000206020528060005260406000206000915091509054906101000a900460ff1681565b600160003373ffffffffffffffffffffffffffffffffffffffff1673ffffffffffffffffffffffffffffffffffffffff16815260200190815260200160002060009054906101000a900460ff166105c8576040517fb87b076d00000000000000000000000000000000000000000000000000000000815260040160405180910390fd5b806004805490508110610607576040517fc304076d00000000000000000000000000000000000000000000000000000000815260040160405180910390fd5b816004818154811061061c5761061b6128cb565b5b906000526020600020906005020160030160009054906101000a900460ff1615610672576040517fecf55dc000000000000000000000000000000000000000000000000000000000815260040160405180910390fd5b826006600082815260200190815260200160002060003373ffffffffffffffffffffffffffffffffffffffff1673ffffffffffffffffffffffffffffffffffffffff16815260200190815260200160002060009054906101000a900460ff1615610708576040517feeda094400000000000000000000000000000000000000000000000000000000815260040160405180910390fd5b60006004858154811061071e5761071d6128cb565b5b9060005260206000209060050201905060018160040160008282546107439190612929565b9250508190555060016006600087815260200190815260200160002060003373ffffffffffffffffffffffffffffffffffffffff1673ffffffffffffffffffffffffffffffffffffffff16815260200190815260200160002060006101000a81548160ff021916908315150217905550843373ffffffffffffffffffffffffffffffffffffffff167ffa624aadd8a0eae4ee975eae5cf13c9803b361b7fa2d832427db6207c088219360405160405180910390a35050505050565b6000600480549050905090565b60016020528060005260406000206000915054906101000a900460ff1681565b6000806060600080600060048781548110610849576108486128cb565b5b906000526020600020906005020190508060000160009054906101000a900473ffffffffffffffffffffffffffffffffffffffff168160010154826002018360030160009054906101000a900460ff1684600401548280546108aa906129ae565b80601f01602080910402602001604051908101604052809291908181526020018280546108d6906129ae565b80156109235780601f106108f857610100808354040283529160200191610923565b820191906000526020600020905b81548152906001019060200180831161090657829003601f168201915b50505050509250955095509550955095505091939590929450565b60025481565b6005818154811061095457600080fd5b90600052602060002090600402016000915090508060010154908060020160009054906101000a900460ff16908060030154905083565b600160003373ffffffffffffffffffffffffffffffffffffffff1673ffffffffffffffffffffffffffffffffffffffff16815260200190815260200160002060009054906101000a900460ff16610a0e576040517fb87b076d00000000000000000000000000000000000000000000000000000000815260040160405180910390fd5b806004805490508110610a4d576040517fc304076d00000000000000000000000000000000000000000000000000000000815260040160405180910390fd5b8160048181548110610a6257610a616128cb565b5b906000526020600020906005020160030160009054906101000a900460ff1615610ab8576040517fecf55dc000000000000000000000000000000000000000000000000000000000815260040160405180910390fd5b826006600082815260200190815260200160002060003373ffffffffffffffffffffffffffffffffffffffff1673ffffffffffffffffffffffffffffffffffffffff16815260200190815260200160002060009054906101000a900460ff1615610b4e576040517feeda094400000000000000000000000000000000000000000000000000000000815260040160405180910390fd5b600060058581548110610b6457610b636128cb565b5b906000526020600020906004020190506001816003016000828254610b899190612929565b9250508190555060016007600087815260200190815260200160002060003373ffffffffffffffffffffffffffffffffffffffff1673ffffffffffffffffffffffffffffffffffffffff16815260200190815260200160002060006101000a81548160ff021916908315150217905550843373ffffffffffffffffffffffffffffffffffffffff167ffa624aadd8a0eae4ee975eae5cf13c9803b361b7fa2d832427db6207c088219360405160405180910390a35050505050565b600160003373ffffffffffffffffffffffffffffffffffffffff1673ffffffffffffffffffffffffffffffffffffffff16815260200190815260200160002060009054906101000a900460ff16610cc7576040517fb87b076d00000000000000000000000000000000000000000000000000000000815260040160405180910390fd5b806004805490508110610d06576040517fc304076d00000000000000000000000000000000000000000000000000000000815260040160405180910390fd5b8160048181548110610d1b57610d1a6128cb565b5b906000526020600020906005020160030160009054906101000a900460ff1615610d71576040517fecf55dc000000000000000000000000000000000000000000000000000000000815260040160405180910390fd5b600060058481548110610d8757610d866128cb565b5b9060005260206000209060040201905060025481600301541015610dd7576040517f9d36c94b00000000000000000000000000000000000000000000000000000000815260040160405180910390fd5b60018160020160006101000a81548160ff021916908315150217905550610e018160010154611d31565b610e9281600001805480602002602001604051908101604052809291908181526020018280548015610e8857602002820191906000526020600020905b8160009054906101000a900473ffffffffffffffffffffffffffffffffffffffff1673ffffffffffffffffffffffffffffffffffffffff1681526020019060010190808311610e3e575b5050505050611e09565b833373ffffffffffffffffffffffffffffffffffffffff167f5445f318f4f5fcfb66592e68e0cc5822aa15664039bd5f0ffde24c5a8142b1ac60405160405180910390a350505050565b60048181548110610eec57600080fd5b90600052602060002090600502016000915090508060000160009054906101000a900473ffffffffffffffffffffffffffffffffffffffff1690806001015490806002018054610f3b906129ae565b80601f0160208091040260200160405190810160405280929190818152602001828054610f67906129ae565b8015610fb45780601f10610f8957610100808354040283529160200191610fb4565b820191906000526020600020905b815481529060010190602001808311610f9757829003601f168201915b5050505050908060030160009054906101000a900460ff16908060040154905085565b6060600080548060200260200160405190810160405280929190818152602001828054801561105b57602002820191906000526020600020905b8160009054906101000a900473ffffffffffffffffffffffffffffffffffffffff1673ffffffffffffffffffffffffffffffffffffffff1681526020019060010190808311611011575b5050505050905090565b600160003373ffffffffffffffffffffffffffffffffffffffff1673ffffffffffffffffffffffffffffffffffffffff16815260200190815260200160002060009054906101000a900460ff166110e8576040517fb87b076d00000000000000000000000000000000000000000000000000000000815260040160405180910390fd5b806004805490508110611127576040517fc304076d00000000000000000000000000000000000000000000000000000000815260040160405180910390fd5b816004818154811061113c5761113b6128cb565b5b906000526020600020906005020160030160009054906101000a900460ff1615611192576040517fecf55dc000000000000000000000000000000000000000000000000000000000815260040160405180910390fd5b6000600484815481106111a8576111a76128cb565b5b906000526020600020906005020190506006600085815260200190815260200160002060003373ffffffffffffffffffffffffffffffffffffffff1673ffffffffffffffffffffffffffffffffffffffff16815260200190815260200160002060009054906101000a900460ff1661124c576040517f5ccba97200000000000000000000000000000000000000000000000000000000815260040160405180910390fd5b600181600401600082825461126191906129e0565b9250508190555060006006600086815260200190815260200160002060003373ffffffffffffffffffffffffffffffffffffffff1673ffffffffffffffffffffffffffffffffffffffff16815260200190815260200160002060006101000a81548160ff021916908315150217905550833373ffffffffffffffffffffffffffffffffffffffff167ff3370ef2e145eb508f15cc1f210b90a3d6ca37e14ec4b695fb529df41e08d58860405160405180910390a350505050565b60606040516024016040516020818303038152906040527f60f59d44000000000000000000000000000000000000000000000000000000007bffffffffffffffffffffffffffffffffffffffffffffffffffffffff19166020820180517bffffffffffffffffffffffffffffffffffffffffffffffffffffffff8381831617835250505050905090565b600160003373ffffffffffffffffffffffffffffffffffffffff1673ffffffffffffffffffffffffffffffffffffffff16815260200190815260200160002060009054906101000a900460ff16611428576040517fb87b076d00000000000000000000000000000000000000000000000000000000815260040160405180910390fd5b806004805490508110611467576040517fc304076d00000000000000000000000000000000000000000000000000000000815260040160405180910390fd5b816004818154811061147c5761147b6128cb565b5b906000526020600020906005020160030160009054906101000a900460ff16156114d2576040517fecf55dc000000000000000000000000000000000000000000000000000000000815260040160405180910390fd5b6000600584815481106114e8576114e76128cb565b5b906000526020600020906004020190506006600085815260200190815260200160002060003373ffffffffffffffffffffffffffffffffffffffff1673ffffffffffffffffffffffffffffffffffffffff16815260200190815260200160002060009054906101000a900460ff1661158c576040517f5ccba97200000000000000000000000000000000000000000000000000000000815260040160405180910390fd5b60018160030160008282546115a191906129e0565b9250508190555060006007600086815260200190815260200160002060003373ffffffffffffffffffffffffffffffffffffffff1673ffffffffffffffffffffffffffffffffffffffff16815260200190815260200160002060006101000a81548160ff021916908315150217905550833373ffffffffffffffffffffffffffffffffffffffff167ff3370ef2e145eb508f15cc1f210b90a3d6ca37e14ec4b695fb529df41e08d58860405160405180910390a350505050565b3373ffffffffffffffffffffffffffffffffffffffff167f90890809c654f11d6e72a28fa60149770a0d11ec6c92319d6ceb2bb0a4ea1a1534476040516116a3929190612a14565b60405180910390a2565b60066020528160005260406000206020528060005260406000206000915091509054906101000a900460ff1681565b600160003373ffffffffffffffffffffffffffffffffffffffff1673ffffffffffffffffffffffffffffffffffffffff16815260200190815260200160002060009054906101000a900460ff1661175f576040517fb87b076d00000000000000000000000000000000000000000000000000000000815260040160405180910390fd5b60006005805490509050600560405180608001604052808581526020018481526020016000151581526020016000815250908060018154018082558091505060019003906000526020600020906004020160009091909190915060008201518160000190805190602001906117d59291906120bd565b506020820151816001015560408201518160020160006101000a81548160ff021916908315150217905550606082015181600301555050803373ffffffffffffffffffffffffffffffffffffffff167f41286274d1d8bd7c78668cddcc1ab10e5c51e06768d41b88d7fa857a7ac098dd6000600254604051611858929190612b29565b60405180910390a3505050565b600160003373ffffffffffffffffffffffffffffffffffffffff1673ffffffffffffffffffffffffffffffffffffffff16815260200190815260200160002060009054906101000a900460ff166118e8576040517fb87b076d00000000000000000000000000000000000000000000000000000000815260040160405180910390fd5b6000600480549050905060046040518060a001604052808673ffffffffffffffffffffffffffffffffffffffff1681526020018581526020018481526020016000151581526020016000815250908060018154018082558091505060019003906000526020600020906005020160009091909190915060008201518160000160006101000a81548173ffffffffffffffffffffffffffffffffffffffff021916908373ffffffffffffffffffffffffffffffffffffffff1602179055506020820151816001015560408201518160020190805190602001906119cb929190612147565b5060608201518160030160006101000a81548160ff0219169083151502179055506080820151816004015550508373ffffffffffffffffffffffffffffffffffffffff16813373ffffffffffffffffffffffffffffffffffffffff167f0edbc3e3d0c2ec575823dbd0324c2247cc89d9ac7f5926e901c16d6f935f8eff8686604051611a58929190612b59565b60405180910390a450505050565b600160003373ffffffffffffffffffffffffffffffffffffffff1673ffffffffffffffffffffffffffffffffffffffff16815260200190815260200160002060009054906101000a900460ff16611ae9576040517fb87b076d00000000000000000000000000000000000000000000000000000000815260040160405180910390fd5b806004805490508110611b28576040517fc304076d00000000000000000000000000000000000000000000000000000000815260040160405180910390fd5b8160048181548110611b3d57611b3c6128cb565b5b906000526020600020906005020160030160009054906101000a900460ff1615611b93576040517fecf55dc000000000000000000000000000000000000000000000000000000000815260040160405180910390fd5b600060048481548110611ba957611ba86128cb565b5b9060005260206000209060050201905060025481600401541015611bf9576040517f9d36c94b00000000000000000000000000000000000000000000000000000000815260040160405180910390fd5b60018160030160006101000a81548160ff02191690831515021790555060008160000160009054906101000a900473ffffffffffffffffffffffffffffffffffffffff1673ffffffffffffffffffffffffffffffffffffffff16826001015483600201604051611c699190612c28565b60006040518083038185875af1925050503d8060008114611ca6576040519150601f19603f3d011682016040523d82523d6000602084013e611cab565b606091505b5050905080611ce6576040517f6543559d00000000000000000000000000000000000000000000000000000000815260040160405180910390fd5b843373ffffffffffffffffffffffffffffffffffffffff167f5445f318f4f5fcfb66592e68e0cc5822aa15664039bd5f0ffde24c5a8142b1ac60405160405180910390a35050505050565b600160003373ffffffffffffffffffffffffffffffffffffffff1673ffffffffffffffffffffffffffffffffffffffff16815260200190815260200160002060009054906101000a900460ff16611db4576040517fb87b076d00000000000000000000000000000000000000000000000000000000815260040160405180910390fd5b600080549050811180611dc8575060008111155b15611dff576040517fafa0f7ed00000000000000000000000000000000000000000000000000000000815260040160405180910390fd5b8060028190555050565b600160003373ffffffffffffffffffffffffffffffffffffffff1673ffffffffffffffffffffffffffffffffffffffff16815260200190815260200160002060009054906101000a900460ff16611e8c576040517fb87b076d00000000000000000000000000000000000000000000000000000000815260040160405180910390fd5b600080611e9991906121cd565b600081511415611ed5576040517fbd8f717200000000000000000000000000000000000000000000000000000000815260040160405180910390fd5b60005b81518110156120b9576000828281518110611ef657611ef56128cb565b5b60200260200101519050600073ffffffffffffffffffffffffffffffffffffffff168173ffffffffffffffffffffffffffffffffffffffff161415611f67576040517f7e4b1d7600000000000000000000000000000000000000000000000000000000815260040160405180910390fd5b600160008273ffffffffffffffffffffffffffffffffffffffff1673ffffffffffffffffffffffffffffffffffffffff16815260200190815260200160002060009054906101000a900460ff1615611feb576040517f9fde231d00000000000000000000000000000000000000000000000000000000815260040160405180910390fd5b60018060008373ffffffffffffffffffffffffffffffffffffffff1673ffffffffffffffffffffffffffffffffffffffff16815260200190815260200160002060006101000a81548160ff0219169083151502179055506000819080600181540180825580915050600190039060005260206000200160009091909190916101000a81548173ffffffffffffffffffffffffffffffffffffffff021916908373ffffffffffffffffffffffffffffffffffffffff1602179055505080806120b190612c3f565b915050611ed8565b5050565b828054828255906000526020600020908101928215612136579160200282015b828111156121355782518260006101000a81548173ffffffffffffffffffffffffffffffffffffffff021916908373ffffffffffffffffffffffffffffffffffffffff160217905550916020019190600101906120dd565b5b50905061214391906121ee565b5090565b828054612153906129ae565b90600052602060002090601f01602090048101928261217557600085556121bc565b82601f1061218e57805160ff19168380011785556121bc565b828001600101855582156121bc579182015b828111156121bb5782518255916020019190600101906121a0565b5b5090506121c991906121ee565b5090565b50805460008255906000526020600020908101906121eb91906121ee565b50565b5b808211156122075760008160009055506001016121ef565b5090565b6000604051905090565b600080fd5b600080fd5b6000819050919050565b6122328161221f565b811461223d57600080fd5b50565b60008135905061224f81612229565b92915050565b60006020828403121561226b5761226a612215565b5b600061227984828501612240565b91505092915050565b600073ffffffffffffffffffffffffffffffffffffffff82169050919050565b60006122ad82612282565b9050919050565b6122bd816122a2565b82525050565b60006020820190506122d860008301846122b4565b92915050565b6122e7816122a2565b81146122f257600080fd5b50565b600081359050612304816122de565b92915050565b6000806040838503121561232157612320612215565b5b600061232f85828601612240565b9250506020612340858286016122f5565b9150509250929050565b60008115159050919050565b61235f8161234a565b82525050565b600060208201905061237a6000830184612356565b92915050565b6123898161221f565b82525050565b60006020820190506123a46000830184612380565b92915050565b6000602082840312156123c0576123bf612215565b5b60006123ce848285016122f5565b91505092915050565b600081519050919050565b600082825260208201905092915050565b60005b838110156124115780820151818401526020810190506123f6565b83811115612420576000848401525b50505050565b6000601f19601f8301169050919050565b6000612442826123d7565b61244c81856123e2565b935061245c8185602086016123f3565b61246581612426565b840191505092915050565b600060a08201905061248560008301886122b4565b6124926020830187612380565b81810360408301526124a48186612437565b90506124b36060830185612356565b6124c06080830184612380565b9695505050505050565b60006060820190506124df6000830186612380565b6124ec6020830185612356565b6124f96040830184612380565b949350505050565b600081519050919050565b600082825260208201905092915050565b6000819050602082019050919050565b612536816122a2565b82525050565b6000612548838361252d565b60208301905092915050565b6000602082019050919050565b600061256c82612501565b612576818561250c565b93506125818361251d565b8060005b838110156125b2578151612599888261253c565b97506125a483612554565b925050600181019050612585565b5085935050505092915050565b600060208201905081810360008301526125d98184612561565b905092915050565b600060208201905081810360008301526125fb8184612437565b905092915050565b600080fd5b7f4e487b7100000000000000000000000000000000000000000000000000000000600052604160045260246000fd5b61264082612426565b810181811067ffffffffffffffff8211171561265f5761265e612608565b5b80604052505050565b600061267261220b565b905061267e8282612637565b919050565b600067ffffffffffffffff82111561269e5761269d612608565b5b602082029050602081019050919050565b600080fd5b60006126c76126c284612683565b612668565b905080838252602082019050602084028301858111156126ea576126e96126af565b5b835b8181101561271357806126ff88826122f5565b8452602084019350506020810190506126ec565b5050509392505050565b600082601f83011261273257612731612603565b5b81356127428482602086016126b4565b91505092915050565b6000806040838503121561276257612761612215565b5b600083013567ffffffffffffffff8111156127805761277f61221a565b5b61278c8582860161271d565b925050602061279d85828601612240565b9150509250929050565b600080fd5b600067ffffffffffffffff8211156127c7576127c6612608565b5b6127d082612426565b9050602081019050919050565b82818337600083830152505050565b60006127ff6127fa846127ac565b612668565b90508281526020810184848401111561281b5761281a6127a7565b5b6128268482856127dd565b509392505050565b600082601f83011261284357612842612603565b5b81356128538482602086016127ec565b91505092915050565b60008060006060848603121561287557612874612215565b5b6000612883868287016122f5565b935050602061289486828701612240565b925050604084013567ffffffffffffffff8111156128b5576128b461221a565b5b6128c18682870161282e565b9150509250925092565b7f4e487b7100000000000000000000000000000000000000000000000000000000600052603260045260246000fd5b7f4e487b7100000000000000000000000000000000000000000000000000000000600052601160045260246000fd5b60006129348261221f565b915061293f8361221f565b9250827fffffffffffffffffffffffffffffffffffffffffffffffffffffffffffffffff03821115612974576129736128fa565b5b828201905092915050565b7f4e487b7100000000000000000000000000000000000000000000000000000000600052602260045260246000fd5b600060028204905060018216806129c657607f821691505b602082108114156129da576129d961297f565b5b50919050565b60006129eb8261221f565b91506129f68361221f565b925082821015612a0957612a086128fa565b5b828203905092915050565b6000604082019050612a296000830185612380565b612a366020830184612380565b9392505050565b600081549050919050565b60008190508160005260206000209050919050565b60008160001c9050919050565b600073ffffffffffffffffffffffffffffffffffffffff82169050919050565b6000612a9d612a9883612a5d565b612a6a565b9050919050565b6000612ab08254612a8a565b9050919050565b6000600182019050919050565b6000612acf82612a3d565b612ad9818561250c565b9350612ae483612a48565b8060005b83811015612b1c57612af982612aa4565b612b03888261253c565b9750612b0e83612ab7565b925050600181019050612ae8565b5085935050505092915050565b60006040820190508181036000830152612b438185612ac4565b9050612b526020830184612380565b9392505050565b6000604082019050612b6e6000830185612380565b8181036020830152612b808184612437565b90509392505050565b600081905092915050565b60008190508160005260206000209050919050565b60008154612bb6816129ae565b612bc08186612b89565b94506001821660008114612bdb5760018114612bec57612c1f565b60ff19831686528186019350612c1f565b612bf585612b94565b60005b83811015612c1757815481890152600182019150602081019050612bf8565b838801955050505b50505092915050565b6000612c348284612ba9565b915081905092915050565b6000612c4a8261221f565b91507fffffffffffffffffffffffffffffffffffffffffffffffffffffffffffffffff821415612c7d57612c7c6128fa565b5b60018201905091905056fea26469706673582212208935778fc677008d7b01dd3da993c8943636684cd606945832995d219a116b2864736f6c63430008090033a264697066735822122051480c4ae5eae72f5deba802a900682799a1c4c58c3c8fb3ba192898a6bd31cf64736f6c63430008090033",
  "linkReferences": {},
  "deployedLinkReferences": {}
}