{
  "_format": "hh-sol-artifact-1",
  "contractName": "MultisigFactory",
  "sourceName": "contracts/Multisig.sol",
  "abi": [
    {
      "anonymous": false,
      "inputs": [
        {
          "indexed": false,
          "internalType": "uint256",
          "name": "date",
          "type": "uint256"
        },
        {
          "indexed": false,
          "internalType": "address",
          "name": "walletOwner",
          "type": "address"
        },
        {
          "indexed": false,
          "internalType": "address",
          "name": "multiSigAddress",
          "type": "address"
        }
      ],
      "name": "multisigInstanceCreated",
      "type": "event"
    },
    {
      "inputs": [
        {
          "internalType": "address[]",
          "name": "_owners",
          "type": "address[]"
        },
        {
          "internalType": "uint256",
          "name": "_threshold",
          "type": "uint256"
        }
      ],
      "name": "createMultiSig",
      "outputs": [
        {
          "internalType": "contract Multisig",
          "name": "",
          "type": "address"
        }
      ],
      "stateMutability": "nonpayable",
      "type": "function"
    },
    {
      "inputs": [],
      "name": "getUserWallets",
      "outputs": [
        {
          "components": [
            {
              "internalType": "address",
              "name": "walletAddress",
              "type": "address"
            },
            {
              "internalType": "uint256",
              "name": "walletID",
              "type": "uint256"
            }
          ],
          "internalType": "struct MultisigFactory.UserWallets[]",
          "name": "walets",
          "type": "tuple[]"
        }
      ],
      "stateMutability": "view",
      "type": "function"
    },
    {
      "inputs": [
        {
          "internalType": "uint256",
          "name": "",
          "type": "uint256"
        }
      ],
      "name": "multisigInstances",
      "outputs": [
        {
          "internalType": "contract Multisig",
          "name": "",
          "type": "address"
        }
      ],
      "stateMutability": "view",
      "type": "function"
    },
    {
      "inputs": [
        {
          "internalType": "uint256",
          "name": "",
          "type": "uint256"
        }
      ],
      "name": "wallets",
      "outputs": [
        {
          "internalType": "address",
          "name": "walletAddress",
          "type": "address"
        },
        {
          "internalType": "uint256",
          "name": "walletID",
          "type": "uint256"
        }
      ],
      "stateMutability": "view",
      "type": "function"
    }
  ],
  "bytecode": "0x60806040526000805534801561001457600080fd5b50614214806100246000396000f3fe60806040523480156200001157600080fd5b5060043610620000525760003560e01c806328442b4d146200005757806368e170a8146200008d5780637ad71f7214620000af578063d46a09f114620000e6575b600080fd5b6200007560048036038101906200006f91906200053e565b6200011c565b604051620000849190620005fb565b60405180910390f35b620000976200015c565b604051620000a691906200073e565b60405180910390f35b620000cd6004803603810190620000c791906200053e565b6200025a565b604051620000dd92919062000784565b60405180910390f35b620001046004803603810190620000fe919062000957565b620002af565b604051620001139190620005fb565b60405180910390f35b600281815481106200012d57600080fd5b906000526020600020016000915054906101000a900473ffffffffffffffffffffffffffffffffffffffff1681565b6060600360003373ffffffffffffffffffffffffffffffffffffffff1673ffffffffffffffffffffffffffffffffffffffff168152602001908152602001600020805480602002602001604051908101604052809291908181526020016000905b828210156200025157838290600052602060002090600202016040518060400160405290816000820160009054906101000a900473ffffffffffffffffffffffffffffffffffffffff1673ffffffffffffffffffffffffffffffffffffffff1673ffffffffffffffffffffffffffffffffffffffff16815260200160018201548152505081526020019060010190620001bd565b50505050905090565b600181815481106200026b57600080fd5b90600052602060002090600202016000915090508060000160009054906101000a900473ffffffffffffffffffffffffffffffffffffffff16908060010154905082565b6000808383604051620002c290620004e1565b620002cf92919062000a7a565b604051809103906000f080158015620002ec573d6000803e3d6000fd5b5090506002819080600181540180825580915050600190039060005260206000200160009091909190916101000a81548173ffffffffffffffffffffffffffffffffffffffff021916908373ffffffffffffffffffffffffffffffffffffffff16021790555060005b845181101562000480576000600360008784815181106200037b576200037a62000aae565b5b602002602001015173ffffffffffffffffffffffffffffffffffffffff1673ffffffffffffffffffffffffffffffffffffffff16815260200190815260200160002090508060405180604001604052808573ffffffffffffffffffffffffffffffffffffffff168152602001600054815250908060018154018082558091505060019003906000526020600020906002020160009091909190915060008201518160000160006101000a81548173ffffffffffffffffffffffffffffffffffffffff021916908373ffffffffffffffffffffffffffffffffffffffff160217905550602082015181600101555050508080620004779062000b0c565b91505062000355565b507f131a21debd61d4e35432834b9dec2854e4b4b125fb391ffcee71d6ea6b01185f423383604051620004b69392919062000b5a565b60405180910390a1600080815480929190620004d29062000b0c565b91905055508091505092915050565b6136478062000b9883390190565b6000604051905090565b600080fd5b600080fd5b6000819050919050565b620005188162000503565b81146200052457600080fd5b50565b60008135905062000538816200050d565b92915050565b600060208284031215620005575762000556620004f9565b5b6000620005678482850162000527565b91505092915050565b600073ffffffffffffffffffffffffffffffffffffffff82169050919050565b6000819050919050565b6000620005bb620005b5620005af8462000570565b62000590565b62000570565b9050919050565b6000620005cf826200059a565b9050919050565b6000620005e382620005c2565b9050919050565b620005f581620005d6565b82525050565b6000602082019050620006126000830184620005ea565b92915050565b600081519050919050565b600082825260208201905092915050565b6000819050602082019050919050565b6000620006518262000570565b9050919050565b620006638162000644565b82525050565b620006748162000503565b82525050565b60408201600082015162000692600085018262000658565b506020820151620006a7602085018262000669565b50505050565b6000620006bb83836200067a565b60408301905092915050565b6000602082019050919050565b6000620006e18262000618565b620006ed818562000623565b9350620006fa8362000634565b8060005b8381101562000731578151620007158882620006ad565b97506200072283620006c7565b925050600181019050620006fe565b5085935050505092915050565b600060208201905081810360008301526200075a8184620006d4565b905092915050565b6200076d8162000644565b82525050565b6200077e8162000503565b82525050565b60006040820190506200079b600083018562000762565b620007aa602083018462000773565b9392505050565b600080fd5b6000601f19601f8301169050919050565b7f4e487b7100000000000000000000000000000000000000000000000000000000600052604160045260246000fd5b6200080182620007b6565b810181811067ffffffffffffffff82111715620008235762000822620007c7565b5b80604052505050565b600062000838620004ef565b9050620008468282620007f6565b919050565b600067ffffffffffffffff821115620008695762000868620007c7565b5b602082029050602081019050919050565b600080fd5b6200088a8162000644565b81146200089657600080fd5b50565b600081359050620008aa816200087f565b92915050565b6000620008c7620008c1846200084b565b6200082c565b90508083825260208201905060208402830185811115620008ed57620008ec6200087a565b5b835b818110156200091a578062000905888262000899565b845260208401935050602081019050620008ef565b5050509392505050565b600082601f8301126200093c576200093b620007b1565b5b81356200094e848260208601620008b0565b91505092915050565b60008060408385031215620009715762000970620004f9565b5b600083013567ffffffffffffffff811115620009925762000991620004fe565b5b620009a08582860162000924565b9250506020620009b38582860162000527565b9150509250929050565b600081519050919050565b600082825260208201905092915050565b6000819050602082019050919050565b6000620009f7838362000658565b60208301905092915050565b6000602082019050919050565b600062000a1d82620009bd565b62000a298185620009c8565b935062000a3683620009d9565b8060005b8381101562000a6d57815162000a518882620009e9565b975062000a5e8362000a03565b92505060018101905062000a3a565b5085935050505092915050565b6000604082019050818103600083015262000a96818562000a10565b905062000aa7602083018462000773565b9392505050565b7f4e487b7100000000000000000000000000000000000000000000000000000000600052603260045260246000fd5b7f4e487b7100000000000000000000000000000000000000000000000000000000600052601160045260246000fd5b600062000b198262000503565b91507fffffffffffffffffffffffffffffffffffffffffffffffffffffffffffffffff82141562000b4f5762000b4e62000add565b5b600182019050919050565b600060608201905062000b71600083018662000773565b62000b80602083018562000762565b62000b8f604083018462000762565b94935050505056fe60806040523480156200001157600080fd5b5060405162003647380380620036478339818101604052810190620000379190620004e3565b60008251141562000074576040517fbd8f717200000000000000000000000000000000000000000000000000000000815260040160405180910390fd5b815181118062000085575060008111155b15620000bd576040517fafa0f7ed00000000000000000000000000000000000000000000000000000000815260040160405180910390fd5b60005b8251811015620002aa576000838281518110620000e257620000e162000549565b5b60200260200101519050600073ffffffffffffffffffffffffffffffffffffffff168173ffffffffffffffffffffffffffffffffffffffff16141562000154576040517f7e4b1d7600000000000000000000000000000000000000000000000000000000815260040160405180910390fd5b600160008273ffffffffffffffffffffffffffffffffffffffff1673ffffffffffffffffffffffffffffffffffffffff16815260200190815260200160002060009054906101000a900460ff1615620001d9576040517f9fde231d00000000000000000000000000000000000000000000000000000000815260040160405180910390fd5b60018060008373ffffffffffffffffffffffffffffffffffffffff1673ffffffffffffffffffffffffffffffffffffffff16815260200190815260200160002060006101000a81548160ff0219169083151502179055506000819080600181540180825580915050600190039060005260206000200160009091909190916101000a81548173ffffffffffffffffffffffffffffffffffffffff021916908373ffffffffffffffffffffffffffffffffffffffff160217905550508080620002a190620005a7565b915050620000c0565b50806002819055505050620005f5565b6000604051905090565b600080fd5b600080fd5b600080fd5b6000601f19601f8301169050919050565b7f4e487b7100000000000000000000000000000000000000000000000000000000600052604160045260246000fd5b6200031e82620002d3565b810181811067ffffffffffffffff8211171562000340576200033f620002e4565b5b80604052505050565b600062000355620002ba565b905062000363828262000313565b919050565b600067ffffffffffffffff821115620003865762000385620002e4565b5b602082029050602081019050919050565b600080fd5b600073ffffffffffffffffffffffffffffffffffffffff82169050919050565b6000620003c9826200039c565b9050919050565b620003db81620003bc565b8114620003e757600080fd5b50565b600081519050620003fb81620003d0565b92915050565b600062000418620004128462000368565b62000349565b905080838252602082019050602084028301858111156200043e576200043d62000397565b5b835b818110156200046b5780620004568882620003ea565b84526020840193505060208101905062000440565b5050509392505050565b600082601f8301126200048d576200048c620002ce565b5b81516200049f84826020860162000401565b91505092915050565b6000819050919050565b620004bd81620004a8565b8114620004c957600080fd5b50565b600081519050620004dd81620004b2565b92915050565b60008060408385031215620004fd57620004fc620002c4565b5b600083015167ffffffffffffffff8111156200051e576200051d620002c9565b5b6200052c8582860162000475565b92505060206200053f85828601620004cc565b9150509250929050565b7f4e487b7100000000000000000000000000000000000000000000000000000000600052603260045260246000fd5b7f4e487b7100000000000000000000000000000000000000000000000000000000600052601160045260246000fd5b6000620005b482620004a8565b91507fffffffffffffffffffffffffffffffffffffffffffffffffffffffffffffffff821415620005ea57620005e962000578565b5b600182019050919050565b61304280620006056000396000f3fe6080604052600436106100eb5760003560e01c806342cde4e81161008a578063a0e67e2b11610059578063a0e67e2b14610382578063b1e130fc146103ad578063df91143f146103d6578063ee22610b1461041357610142565b806342cde4e8146102bc57806367aadc14146102e757806383920e90146103105780639ace38c21461033b57610142565b8063242232d1116100c6578063242232d1146101ea5780632e7700f0146102135780632f54bf6e1461023e57806333ea3dc81461027b57610142565b8062e9c006146101475780630168521114610170578063025e7c27146101ad57610142565b36610142573373ffffffffffffffffffffffffffffffffffffffff167f90890809c654f11d6e72a28fa60149770a0d11ec6c92319d6ceb2bb0a4ea1a153447604051610138929190612261565b60405180910390a2005b600080fd5b34801561015357600080fd5b5061016e600480360381019061016991906122ca565b61043c565b005b34801561017c57600080fd5b50610197600480360381019061019291906122ca565b61067d565b6040516101a49190612312565b60405180910390f35b3480156101b957600080fd5b506101d460048036038101906101cf91906122ca565b6106e4565b6040516101e1919061236e565b60405180910390f35b3480156101f657600080fd5b50610211600480360381019061020c91906122ca565b610723565b005b34801561021f57600080fd5b50610228610a41565b6040516102359190612389565b60405180910390f35b34801561024a57600080fd5b50610265600480360381019061026091906123d0565b610a4e565b6040516102729190612312565b60405180910390f35b34801561028757600080fd5b506102a2600480360381019061029d91906122ca565b610a6e565b6040516102b3959493929190612496565b60405180910390f35b3480156102c857600080fd5b506102d1610b81565b6040516102de9190612389565b60405180910390f35b3480156102f357600080fd5b5061030e60048036038101906103099190612712565b610b87565b005b34801561031c57600080fd5b50610325610efb565b6040516103329190612b76565b60405180910390f35b34801561034757600080fd5b50610362600480360381019061035d91906122ca565b61120c565b6040516103799b9a99989796959493929190612bb6565b60405180910390f35b34801561038e57600080fd5b50610397611345565b6040516103a49190612cd7565b60405180910390f35b3480156103b957600080fd5b506103d460048036038101906103cf91906122ca565b6113d3565b005b3480156103e257600080fd5b506103fd60048036038101906103f89190612cf9565b61176a565b60405161040a9190612312565b60405180910390f35b34801561041f57600080fd5b5061043a600480360381019061043591906122ca565b611799565b005b600160003373ffffffffffffffffffffffffffffffffffffffff1673ffffffffffffffffffffffffffffffffffffffff16815260200190815260200160002060009054906101000a900460ff166104bf576040517fb87b076d00000000000000000000000000000000000000000000000000000000815260040160405180910390fd5b8060048054905081106104fe576040517fc304076d00000000000000000000000000000000000000000000000000000000815260040160405180910390fd5b816004818154811061051357610512612d39565b5b90600052602060002090600c020160060160009054906101000a900460ff1615610569576040517fecf55dc000000000000000000000000000000000000000000000000000000000815260040160405180910390fd5b60006004848154811061057f5761057e612d39565b5b90600052602060002090600c020190508060060160019054906101000a900460ff16156105d8576040517fa7d6531f00000000000000000000000000000000000000000000000000000000815260040160405180910390fd5b600081600b015414610616576040517f016cba4100000000000000000000000000000000000000000000000000000000815260040160405180910390fd5b60018160060160016101000a81548160ff021916908315150217905550833373ffffffffffffffffffffffffffffffffffffffff167f7c709d18930bc948c17b828478f75d33a85c7a37dd8aea2ed2d21e507898c2e560405160405180910390a350505050565b60006005600083815260200190815260200160002060003373ffffffffffffffffffffffffffffffffffffffff1673ffffffffffffffffffffffffffffffffffffffff16815260200190815260200160002060009054906101000a900460ff169050919050565b600081815481106106f457600080fd5b906000526020600020016000915054906101000a900473ffffffffffffffffffffffffffffffffffffffff1681565b600160003373ffffffffffffffffffffffffffffffffffffffff1673ffffffffffffffffffffffffffffffffffffffff16815260200190815260200160002060009054906101000a900460ff166107a6576040517fb87b076d00000000000000000000000000000000000000000000000000000000815260040160405180910390fd5b8060048054905081106107e5576040517fc304076d00000000000000000000000000000000000000000000000000000000815260040160405180910390fd5b81600481815481106107fa576107f9612d39565b5b90600052602060002090600c020160060160009054906101000a900460ff1615610850576040517fecf55dc000000000000000000000000000000000000000000000000000000000815260040160405180910390fd5b826005600082815260200190815260200160002060003373ffffffffffffffffffffffffffffffffffffffff1673ffffffffffffffffffffffffffffffffffffffff16815260200190815260200160002060009054906101000a900460ff16156108e6576040517feeda094400000000000000000000000000000000000000000000000000000000815260040160405180910390fd5b6000600485815481106108fc576108fb612d39565b5b90600052602060002090600c02019050600181600b0160008282546109219190612d97565b9250508190555060016005600087815260200190815260200160002060003373ffffffffffffffffffffffffffffffffffffffff1673ffffffffffffffffffffffffffffffffffffffff16815260200190815260200160002060006101000a81548160ff02191690831515021790555080600701339080600181540180825580915050600190039060005260206000200160009091909190916101000a81548173ffffffffffffffffffffffffffffffffffffffff021916908373ffffffffffffffffffffffffffffffffffffffff160217905550843373ffffffffffffffffffffffffffffffffffffffff167ffa624aadd8a0eae4ee975eae5cf13c9803b361b7fa2d832427db6207c088219360405160405180910390a35050505050565b6000600480549050905090565b60016020528060005260406000206000915054906101000a900460ff1681565b6000806060600080600060048781548110610a8c57610a8b612d39565b5b90600052602060002090600c020190508060030160009054906101000a900473ffffffffffffffffffffffffffffffffffffffff168160040154826005018360060160009054906101000a900460ff1684600b0154828054610aed90612e1c565b80601f0160208091040260200160405190810160405280929190818152602001828054610b1990612e1c565b8015610b665780601f10610b3b57610100808354040283529160200191610b66565b820191906000526020600020905b815481529060010190602001808311610b4957829003601f168201915b50505050509250955095509550955095505091939590929450565b60025481565b600160003373ffffffffffffffffffffffffffffffffffffffff1673ffffffffffffffffffffffffffffffffffffffff16815260200190815260200160002060009054906101000a900460ff16610c0a576040517fb87b076d00000000000000000000000000000000000000000000000000000000815260040160405180910390fd5b600060048054905090506004604051806101a001604052804281526020018342604051602001610c3b929190612e6f565b6040516020818303038152906040528051906020012081526020018381526020018973ffffffffffffffffffffffffffffffffffffffff168152602001888152602001878152602001600015158152602001600015158152602001600067ffffffffffffffff811115610cb157610cb06124fa565b5b604051908082528060200260200182016040528015610cdf5781602001602082028036833780820191505090505b508152602001868152602001858152602001846003811115610d0457610d03612942565b5b8152602001600081525090806001815401808255809150506001900390600052602060002090600c020160009091909190915060008201518160000155602082015181600101556040820151816002015560608201518160030160006101000a81548173ffffffffffffffffffffffffffffffffffffffff021916908373ffffffffffffffffffffffffffffffffffffffff1602179055506080820151816004015560a0820151816005019080519060200190610dc29291906120fa565b5060c08201518160060160006101000a81548160ff02191690831515021790555060e08201518160060160016101000a81548160ff021916908315150217905550610100820151816007019080519060200190610e20929190612180565b50610120820151816008019080519060200190610e3e929190612180565b50610140820151816009015561016082015181600a0160006101000a81548160ff02191690836003811115610e7657610e75612942565b5b021790555061018082015181600b015550508673ffffffffffffffffffffffffffffffffffffffff16813373ffffffffffffffffffffffffffffffffffffffff167fc989d135c1b3b2b228ef4f07a7ceed341584db4f68e43211547396604ba7208c898987604051610eea93929190612e9b565b60405180910390a450505050505050565b60606004805480602002602001604051908101604052809291908181526020016000905b8282101561120357838290600052602060002090600c0201604051806101a00160405290816000820154815260200160018201548152602001600282015481526020016003820160009054906101000a900473ffffffffffffffffffffffffffffffffffffffff1673ffffffffffffffffffffffffffffffffffffffff1673ffffffffffffffffffffffffffffffffffffffff16815260200160048201548152602001600582018054610fd190612e1c565b80601f0160208091040260200160405190810160405280929190818152602001828054610ffd90612e1c565b801561104a5780601f1061101f5761010080835404028352916020019161104a565b820191906000526020600020905b81548152906001019060200180831161102d57829003601f168201915b505050505081526020016006820160009054906101000a900460ff161515151581526020016006820160019054906101000a900460ff161515151581526020016007820180548060200260200160405190810160405280929190818152602001828054801561110e57602002820191906000526020600020905b8160009054906101000a900473ffffffffffffffffffffffffffffffffffffffff1673ffffffffffffffffffffffffffffffffffffffff16815260200190600101908083116110c4575b505050505081526020016008820180548060200260200160405190810160405280929190818152602001828054801561119c57602002820191906000526020600020905b8160009054906101000a900473ffffffffffffffffffffffffffffffffffffffff1673ffffffffffffffffffffffffffffffffffffffff1681526020019060010190808311611152575b5050505050815260200160098201548152602001600a820160009054906101000a900460ff1660038111156111d4576111d3612942565b5b60038111156111e6576111e5612942565b5b8152602001600b8201548152505081526020019060010190610f1f565b50505050905090565b6004818154811061121c57600080fd5b90600052602060002090600c02016000915090508060000154908060010154908060020154908060030160009054906101000a900473ffffffffffffffffffffffffffffffffffffffff169080600401549080600501805461127d90612e1c565b80601f01602080910402602001604051908101604052809291908181526020018280546112a990612e1c565b80156112f65780601f106112cb576101008083540402835291602001916112f6565b820191906000526020600020905b8154815290600101906020018083116112d957829003601f168201915b5050505050908060060160009054906101000a900460ff16908060060160019054906101000a900460ff169080600901549080600a0160009054906101000a900460ff169080600b015490508b565b606060008054806020026020016040519081016040528092919081815260200182805480156113c957602002820191906000526020600020905b8160009054906101000a900473ffffffffffffffffffffffffffffffffffffffff1673ffffffffffffffffffffffffffffffffffffffff168152602001906001019080831161137f575b5050505050905090565b600160003373ffffffffffffffffffffffffffffffffffffffff1673ffffffffffffffffffffffffffffffffffffffff16815260200190815260200160002060009054906101000a900460ff16611456576040517fb87b076d00000000000000000000000000000000000000000000000000000000815260040160405180910390fd5b806004805490508110611495576040517fc304076d00000000000000000000000000000000000000000000000000000000815260040160405180910390fd5b81600481815481106114aa576114a9612d39565b5b90600052602060002090600c020160060160009054906101000a900460ff1615611500576040517fecf55dc000000000000000000000000000000000000000000000000000000000815260040160405180910390fd5b60006004848154811061151657611515612d39565b5b90600052602060002090600c020190506005600085815260200190815260200160002060003373ffffffffffffffffffffffffffffffffffffffff1673ffffffffffffffffffffffffffffffffffffffff16815260200190815260200160002060009054906101000a900460ff166115ba576040517f5ccba97200000000000000000000000000000000000000000000000000000000815260040160405180910390fd5b600181600b0160008282546115cf9190612ed9565b9250508190555060006005600086815260200190815260200160002060003373ffffffffffffffffffffffffffffffffffffffff1673ffffffffffffffffffffffffffffffffffffffff16815260200190815260200160002060006101000a81548160ff02191690831515021790555060005b8160070180549050811161171f573373ffffffffffffffffffffffffffffffffffffffff1682600701828154811061167d5761167c612d39565b5b9060005260206000200160009054906101000a900473ffffffffffffffffffffffffffffffffffffffff1673ffffffffffffffffffffffffffffffffffffffff16141561170c578160070181815481106116da576116d9612d39565b5b9060005260206000200160006101000a81549073ffffffffffffffffffffffffffffffffffffffff021916905561171f565b808061171790612f0d565b915050611642565b50833373ffffffffffffffffffffffffffffffffffffffff167ff3370ef2e145eb508f15cc1f210b90a3d6ca37e14ec4b695fb529df41e08d58860405160405180910390a350505050565b60056020528160005260406000206020528060005260406000206000915091509054906101000a900460ff1681565b600160003373ffffffffffffffffffffffffffffffffffffffff1673ffffffffffffffffffffffffffffffffffffffff16815260200190815260200160002060009054906101000a900460ff1661181c576040517fb87b076d00000000000000000000000000000000000000000000000000000000815260040160405180910390fd5b80600480549050811061185b576040517fc304076d00000000000000000000000000000000000000000000000000000000815260040160405180910390fd5b81600481815481106118705761186f612d39565b5b90600052602060002090600c020160060160009054906101000a900460ff16156118c6576040517fecf55dc000000000000000000000000000000000000000000000000000000000815260040160405180910390fd5b6000600484815481106118dc576118db612d39565b5b90600052602060002090600c0201905060025481600b0154101561192c576040517f9d36c94b00000000000000000000000000000000000000000000000000000000815260040160405180910390fd5b8060060160019054906101000a900460ff1615611975576040517ff7bb06c100000000000000000000000000000000000000000000000000000000815260040160405180910390fd5b60018160060160006101000a81548160ff0219169083151502179055506003808111156119a5576119a4612942565b5b81600a0160009054906101000a900460ff1660038111156119c9576119c8612942565b5b1415611aa15760008160030160009054906101000a900473ffffffffffffffffffffffffffffffffffffffff1673ffffffffffffffffffffffffffffffffffffffff16826004015483600501604051611a229190612ff5565b60006040518083038185875af1925050503d8060008114611a5f576040519150601f19603f3d011682016040523d82523d6000602084013e611a64565b606091505b5050905080611a9f576040517f6543559d00000000000000000000000000000000000000000000000000000000815260040160405180910390fd5b505b60006003811115611ab557611ab4612942565b5b81600a0160009054906101000a900460ff166003811115611ad957611ad8612942565b5b1415611b7157611b7081600801805480602002602001604051908101604052809291908181526020018280548015611b6657602002820191906000526020600020905b8160009054906101000a900473ffffffffffffffffffffffffffffffffffffffff1673ffffffffffffffffffffffffffffffffffffffff1681526020019060010190808311611b1c575b5050505050611cb5565b5b60016003811115611b8557611b84612942565b5b81600a0160009054906101000a900460ff166003811115611ba957611ba8612942565b5b1415611bbd57611bbc8160090154612022565b5b60026003811115611bd157611bd0612942565b5b81600a0160009054906101000a900460ff166003811115611bf557611bf4612942565b5b1415611c6b578060030160009054906101000a900473ffffffffffffffffffffffffffffffffffffffff1673ffffffffffffffffffffffffffffffffffffffff166108fc82600401549081150290604051600060405180830381858888f19350505050158015611c69573d6000803e3d6000fd5b505b833373ffffffffffffffffffffffffffffffffffffffff167f5445f318f4f5fcfb66592e68e0cc5822aa15664039bd5f0ffde24c5a8142b1ac60405160405180910390a350505050565b600160003373ffffffffffffffffffffffffffffffffffffffff1673ffffffffffffffffffffffffffffffffffffffff16815260200190815260200160002060009054906101000a900460ff16611d38576040517fb87b076d00000000000000000000000000000000000000000000000000000000815260040160405180910390fd5b60005b600080549050811015611df057600060016000808481548110611d6157611d60612d39565b5b9060005260206000200160009054906101000a900473ffffffffffffffffffffffffffffffffffffffff1673ffffffffffffffffffffffffffffffffffffffff1673ffffffffffffffffffffffffffffffffffffffff16815260200190815260200160002060006101000a81548160ff0219169083151502179055508080611de890612f0d565b915050611d3b565b50600080611dfe919061220a565b600081511415611e3a576040517fbd8f717200000000000000000000000000000000000000000000000000000000815260040160405180910390fd5b60005b815181101561201e576000828281518110611e5b57611e5a612d39565b5b60200260200101519050600073ffffffffffffffffffffffffffffffffffffffff168173ffffffffffffffffffffffffffffffffffffffff161415611ecc576040517f7e4b1d7600000000000000000000000000000000000000000000000000000000815260040160405180910390fd5b600160008273ffffffffffffffffffffffffffffffffffffffff1673ffffffffffffffffffffffffffffffffffffffff16815260200190815260200160002060009054906101000a900460ff1615611f50576040517f9fde231d00000000000000000000000000000000000000000000000000000000815260040160405180910390fd5b60018060008373ffffffffffffffffffffffffffffffffffffffff1673ffffffffffffffffffffffffffffffffffffffff16815260200190815260200160002060006101000a81548160ff0219169083151502179055506000819080600181540180825580915050600190039060005260206000200160009091909190916101000a81548173ffffffffffffffffffffffffffffffffffffffff021916908373ffffffffffffffffffffffffffffffffffffffff16021790555050808061201690612f0d565b915050611e3d565b5050565b600160003373ffffffffffffffffffffffffffffffffffffffff1673ffffffffffffffffffffffffffffffffffffffff16815260200190815260200160002060009054906101000a900460ff166120a5576040517fb87b076d00000000000000000000000000000000000000000000000000000000815260040160405180910390fd5b6000805490508111806120b9575060008111155b156120f0576040517fafa0f7ed00000000000000000000000000000000000000000000000000000000815260040160405180910390fd5b8060028190555050565b82805461210690612e1c565b90600052602060002090601f016020900481019282612128576000855561216f565b82601f1061214157805160ff191683800117855561216f565b8280016001018555821561216f579182015b8281111561216e578251825591602001919060010190612153565b5b50905061217c919061222b565b5090565b8280548282559060005260206000209081019282156121f9579160200282015b828111156121f85782518260006101000a81548173ffffffffffffffffffffffffffffffffffffffff021916908373ffffffffffffffffffffffffffffffffffffffff160217905550916020019190600101906121a0565b5b509050612206919061222b565b5090565b5080546000825590600052602060002090810190612228919061222b565b50565b5b8082111561224457600081600090555060010161222c565b5090565b6000819050919050565b61225b81612248565b82525050565b60006040820190506122766000830185612252565b6122836020830184612252565b9392505050565b6000604051905090565b600080fd5b600080fd5b6122a781612248565b81146122b257600080fd5b50565b6000813590506122c48161229e565b92915050565b6000602082840312156122e0576122df612294565b5b60006122ee848285016122b5565b91505092915050565b60008115159050919050565b61230c816122f7565b82525050565b60006020820190506123276000830184612303565b92915050565b600073ffffffffffffffffffffffffffffffffffffffff82169050919050565b60006123588261232d565b9050919050565b6123688161234d565b82525050565b6000602082019050612383600083018461235f565b92915050565b600060208201905061239e6000830184612252565b92915050565b6123ad8161234d565b81146123b857600080fd5b50565b6000813590506123ca816123a4565b92915050565b6000602082840312156123e6576123e5612294565b5b60006123f4848285016123bb565b91505092915050565b600081519050919050565b600082825260208201905092915050565b60005b8381101561243757808201518184015260208101905061241c565b83811115612446576000848401525b50505050565b6000601f19601f8301169050919050565b6000612468826123fd565b6124728185612408565b9350612482818560208601612419565b61248b8161244c565b840191505092915050565b600060a0820190506124ab600083018861235f565b6124b86020830187612252565b81810360408301526124ca818661245d565b90506124d96060830185612303565b6124e66080830184612252565b9695505050505050565b600080fd5b600080fd5b7f4e487b7100000000000000000000000000000000000000000000000000000000600052604160045260246000fd5b6125328261244c565b810181811067ffffffffffffffff82111715612551576125506124fa565b5b80604052505050565b600061256461228a565b90506125708282612529565b919050565b600067ffffffffffffffff8211156125905761258f6124fa565b5b6125998261244c565b9050602081019050919050565b82818337600083830152505050565b60006125c86125c384612575565b61255a565b9050828152602081018484840111156125e4576125e36124f5565b5b6125ef8482856125a6565b509392505050565b600082601f83011261260c5761260b6124f0565b5b813561261c8482602086016125b5565b91505092915050565b600067ffffffffffffffff8211156126405761263f6124fa565b5b602082029050602081019050919050565b600080fd5b600061266961266484612625565b61255a565b9050808382526020820190506020840283018581111561268c5761268b612651565b5b835b818110156126b557806126a188826123bb565b84526020840193505060208101905061268e565b5050509392505050565b600082601f8301126126d4576126d36124f0565b5b81356126e4848260208601612656565b91505092915050565b600481106126fa57600080fd5b50565b60008135905061270c816126ed565b92915050565b60008060008060008060c0878903121561272f5761272e612294565b5b600061273d89828a016123bb565b965050602061274e89828a016122b5565b955050604087013567ffffffffffffffff81111561276f5761276e612299565b5b61277b89828a016125f7565b945050606087013567ffffffffffffffff81111561279c5761279b612299565b5b6127a889828a016126bf565b93505060806127b989828a016122b5565b92505060a06127ca89828a016126fd565b9150509295509295509295565b600081519050919050565b600082825260208201905092915050565b6000819050602082019050919050565b61280c81612248565b82525050565b6000819050919050565b61282581612812565b82525050565b6128348161234d565b82525050565b600082825260208201905092915050565b6000612856826123fd565b612860818561283a565b9350612870818560208601612419565b6128798161244c565b840191505092915050565b61288d816122f7565b82525050565b600081519050919050565b600082825260208201905092915050565b6000819050602082019050919050565b60006128cb838361282b565b60208301905092915050565b6000602082019050919050565b60006128ef82612893565b6128f9818561289e565b9350612904836128af565b8060005b8381101561293557815161291c88826128bf565b9750612927836128d7565b925050600181019050612908565b5085935050505092915050565b7f4e487b7100000000000000000000000000000000000000000000000000000000600052602160045260246000fd5b6004811061298257612981612942565b5b50565b600081905061299382612971565b919050565b60006129a382612985565b9050919050565b6129b381612998565b82525050565b60006101a0830160008301516129d26000860182612803565b5060208301516129e5602086018261281c565b5060408301516129f86040860182612803565b506060830151612a0b606086018261282b565b506080830151612a1e6080860182612803565b5060a083015184820360a0860152612a36828261284b565b91505060c0830151612a4b60c0860182612884565b5060e0830151612a5e60e0860182612884565b50610100830151848203610100860152612a7882826128e4565b915050610120830151848203610120860152612a9482826128e4565b915050610140830151612aab610140860182612803565b50610160830151612ac06101608601826129aa565b50610180830151612ad5610180860182612803565b508091505092915050565b6000612aec83836129b9565b905092915050565b6000602082019050919050565b6000612b0c826127d7565b612b1681856127e2565b935083602082028501612b28856127f3565b8060005b85811015612b645784840389528151612b458582612ae0565b9450612b5083612af4565b925060208a01995050600181019050612b2c565b50829750879550505050505092915050565b60006020820190508181036000830152612b908184612b01565b905092915050565b612ba181612812565b82525050565b612bb081612998565b82525050565b600061016082019050612bcc600083018e612252565b612bd9602083018d612b98565b612be6604083018c612252565b612bf3606083018b61235f565b612c00608083018a612252565b81810360a0830152612c12818961245d565b9050612c2160c0830188612303565b612c2e60e0830187612303565b612c3c610100830186612252565b612c4a610120830185612ba7565b612c58610140830184612252565b9c9b505050505050505050505050565b600082825260208201905092915050565b6000612c8482612893565b612c8e8185612c68565b9350612c99836128af565b8060005b83811015612cca578151612cb188826128bf565b9750612cbc836128d7565b925050600181019050612c9d565b5085935050505092915050565b60006020820190508181036000830152612cf18184612c79565b905092915050565b60008060408385031215612d1057612d0f612294565b5b6000612d1e858286016122b5565b9250506020612d2f858286016123bb565b9150509250929050565b7f4e487b7100000000000000000000000000000000000000000000000000000000600052603260045260246000fd5b7f4e487b7100000000000000000000000000000000000000000000000000000000600052601160045260246000fd5b6000612da282612248565b9150612dad83612248565b9250827fffffffffffffffffffffffffffffffffffffffffffffffffffffffffffffffff03821115612de257612de1612d68565b5b828201905092915050565b7f4e487b7100000000000000000000000000000000000000000000000000000000600052602260045260246000fd5b60006002820490506001821680612e3457607f821691505b60208210811415612e4857612e47612ded565b5b50919050565b6000819050919050565b612e69612e6482612248565b612e4e565b82525050565b6000612e7b8285612e58565b602082019150612e8b8284612e58565b6020820191508190509392505050565b6000606082019050612eb06000830186612252565b8181036020830152612ec2818561245d565b9050612ed16040830184612ba7565b949350505050565b6000612ee482612248565b9150612eef83612248565b925082821015612f0257612f01612d68565b5b828203905092915050565b6000612f1882612248565b91507fffffffffffffffffffffffffffffffffffffffffffffffffffffffffffffffff821415612f4b57612f4a612d68565b5b600182019050919050565b600081905092915050565b60008190508160005260206000209050919050565b60008154612f8381612e1c565b612f8d8186612f56565b94506001821660008114612fa85760018114612fb957612fec565b60ff19831686528186019350612fec565b612fc285612f61565b60005b83811015612fe457815481890152600182019150602081019050612fc5565b838801955050505b50505092915050565b60006130018284612f76565b91508190509291505056fea26469706673582212200526f020bf956692fc879393a05ac36c64aee48f12b0060897913a338d090fec64736f6c63430008090033a2646970667358221220ebc1fe658356778bba144454306dae8778aabc3d12b4289c609dec67dc2e9e2e64736f6c63430008090033",
  "linkReferences": {},
  "deployedLinkReferences": {}
}