{
  "_format": "hh-sol-artifact-1",
  "contractName": "MultisigDB",
  "sourceName": "contracts/MultisigDB.sol",
  "abi": [
    {
      "inputs": [
        {
          "internalType": "address",
          "name": "owner",
          "type": "address"
        }
      ],
      "name": "getWallets",
      "outputs": [
        {
          "internalType": "address[]",
          "name": "",
          "type": "address[]"
        }
      ],
      "stateMutability": "view",
      "type": "function"
    },
    {
      "inputs": [
        {
          "internalType": "address",
          "name": "",
          "type": "address"
        },
        {
          "internalType": "uint256",
          "name": "",
          "type": "uint256"
        }
      ],
      "name": "ownerToWallets",
      "outputs": [
        {
          "internalType": "address",
          "name": "",
          "type": "address"
        }
      ],
      "stateMutability": "view",
      "type": "function"
    },
    {
      "inputs": [
        {
          "internalType": "address",
          "name": "owner",
          "type": "address"
        },
        {
          "internalType": "address",
          "name": "wallet",
          "type": "address"
        }
      ],
      "name": "removeWallet",
      "outputs": [],
      "stateMutability": "nonpayable",
      "type": "function"
    },
    {
      "inputs": [
        {
          "internalType": "address",
          "name": "owner",
          "type": "address"
        },
        {
          "internalType": "address",
          "name": "wallet",
          "type": "address"
        }
      ],
      "name": "setWallet",
      "outputs": [],
      "stateMutability": "nonpayable",
      "type": "function"
    }
  ],
  "bytecode": "0x608060405234801561001057600080fd5b5061078e806100206000396000f3fe608060405234801561001057600080fd5b506004361061004c5760003560e01c8063422c29a4146100515780636915b0f214610081578063eeda273d146100b1578063f1b234ad146100cd575b600080fd5b61006b600480360381019061006691906104c4565b6100e9565b60405161007891906105af565b60405180910390f35b61009b60048036038101906100969190610607565b6101b5565b6040516100a89190610656565b60405180910390f35b6100cb60048036038101906100c69190610671565b610203565b005b6100e760048036038101906100e29190610671565b6103be565b005b60606000808373ffffffffffffffffffffffffffffffffffffffff1673ffffffffffffffffffffffffffffffffffffffff1681526020019081526020016000208054806020026020016040519081016040528092919081815260200182805480156101a957602002820191906000526020600020905b8160009054906101000a900473ffffffffffffffffffffffffffffffffffffffff1673ffffffffffffffffffffffffffffffffffffffff168152602001906001019080831161015f575b50505050509050919050565b600060205281600052604060002081815481106101d157600080fd5b906000526020600020016000915091509054906101000a900473ffffffffffffffffffffffffffffffffffffffff1681565b60008060008473ffffffffffffffffffffffffffffffffffffffff1673ffffffffffffffffffffffffffffffffffffffff1681526020019081526020016000208054806020026020016040519081016040528092919081815260200182805480156102c357602002820191906000526020600020905b8160009054906101000a900473ffffffffffffffffffffffffffffffffffffffff1673ffffffffffffffffffffffffffffffffffffffff1681526020019060010190808311610279575b5050505050905060005b815181116103b8578273ffffffffffffffffffffffffffffffffffffffff168282815181106102ff576102fe6106b1565b5b602002602001015173ffffffffffffffffffffffffffffffffffffffff1614156103a5576000808573ffffffffffffffffffffffffffffffffffffffff1673ffffffffffffffffffffffffffffffffffffffff1681526020019081526020016000208181548110610373576103726106b1565b5b9060005260206000200160006101000a81549073ffffffffffffffffffffffffffffffffffffffff02191690556103b8565b80806103b09061070f565b9150506102cd565b50505050565b6000808373ffffffffffffffffffffffffffffffffffffffff1673ffffffffffffffffffffffffffffffffffffffff168152602001908152602001600020819080600181540180825580915050600190039060005260206000200160009091909190916101000a81548173ffffffffffffffffffffffffffffffffffffffff021916908373ffffffffffffffffffffffffffffffffffffffff1602179055505050565b600080fd5b600073ffffffffffffffffffffffffffffffffffffffff82169050919050565b600061049182610466565b9050919050565b6104a181610486565b81146104ac57600080fd5b50565b6000813590506104be81610498565b92915050565b6000602082840312156104da576104d9610461565b5b60006104e8848285016104af565b91505092915050565b600081519050919050565b600082825260208201905092915050565b6000819050602082019050919050565b61052681610486565b82525050565b6000610538838361051d565b60208301905092915050565b6000602082019050919050565b600061055c826104f1565b61056681856104fc565b93506105718361050d565b8060005b838110156105a2578151610589888261052c565b975061059483610544565b925050600181019050610575565b5085935050505092915050565b600060208201905081810360008301526105c98184610551565b905092915050565b6000819050919050565b6105e4816105d1565b81146105ef57600080fd5b50565b600081359050610601816105db565b92915050565b6000806040838503121561061e5761061d610461565b5b600061062c858286016104af565b925050602061063d858286016105f2565b9150509250929050565b61065081610486565b82525050565b600060208201905061066b6000830184610647565b92915050565b6000806040838503121561068857610687610461565b5b6000610696858286016104af565b92505060206106a7858286016104af565b9150509250929050565b7f4e487b7100000000000000000000000000000000000000000000000000000000600052603260045260246000fd5b7f4e487b7100000000000000000000000000000000000000000000000000000000600052601160045260246000fd5b600061071a826105d1565b91507fffffffffffffffffffffffffffffffffffffffffffffffffffffffffffffffff82141561074d5761074c6106e0565b5b60018201905091905056fea2646970667358221220e3915f016a3b8c9011d2f7961e92c2a2faeb609e61b65068312f4bab8d4b958164736f6c63430008090033",
  "linkReferences": {},
  "deployedLinkReferences": {}
}