{
  "_format": "hh-sol-artifact-1",
  "contractName": "Multisig",
  "sourceName": "contracts/Multisig.sol",
  "abi": [
    {
      "inputs": [
        {
          "internalType": "address[]",
          "name": "_owners",
          "type": "address[]"
        },
        {
          "internalType": "uint256",
          "name": "_threshold",
          "type": "uint256"
        }
      ],
      "stateMutability": "nonpayable",
      "type": "constructor"
    },
    {
      "inputs": [],
      "name": "Multisig__Cannot_Delete_Signed_Transaction",
      "type": "error"
    },
    {
      "inputs": [],
      "name": "Multisig__Cannot_Execute_Deleted_Transaction",
      "type": "error"
    },
    {
      "inputs": [],
      "name": "Multisig__Invalid_Owner",
      "type": "error"
    },
    {
      "inputs": [],
      "name": "Multisig__Invalid_Threshold",
      "type": "error"
    },
    {
      "inputs": [],
      "name": "Multisig__Not_An_Owner",
      "type": "error"
    },
    {
      "inputs": [],
      "name": "Multisig__Not_Enough_Owners",
      "type": "error"
    },
    {
      "inputs": [],
      "name": "Multisig__Not_Enough_Signers",
      "type": "error"
    },
    {
      "inputs": [],
      "name": "Multisig__Owners_Must_Be_Unique",
      "type": "error"
    },
    {
      "inputs": [],
      "name": "Multisig__Transaction_Already_Deleted",
      "type": "error"
    },
    {
      "inputs": [],
      "name": "Multisig__Tx_Already_Approved",
      "type": "error"
    },
    {
      "inputs": [],
      "name": "Multisig__Tx_Already_Executed",
      "type": "error"
    },
    {
      "inputs": [],
      "name": "Multisig__Tx_Does_Not_Exist",
      "type": "error"
    },
    {
      "inputs": [],
      "name": "Multisig__Tx_Execution_Failed",
      "type": "error"
    },
    {
      "inputs": [],
      "name": "Multisig__Tx_Not_Approved",
      "type": "error"
    },
    {
      "anonymous": false,
      "inputs": [
        {
          "indexed": true,
          "internalType": "address",
          "name": "owner",
          "type": "address"
        },
        {
          "indexed": true,
          "internalType": "uint256",
          "name": "txIndex",
          "type": "uint256"
        }
      ],
      "name": "ApproveTransaction",
      "type": "event"
    },
    {
      "anonymous": false,
      "inputs": [
        {
          "indexed": true,
          "internalType": "address",
          "name": "owner",
          "type": "address"
        },
        {
          "indexed": true,
          "internalType": "uint256",
          "name": "txIndex",
          "type": "uint256"
        }
      ],
      "name": "DeleteTransaction",
      "type": "event"
    },
    {
      "anonymous": false,
      "inputs": [
        {
          "indexed": true,
          "internalType": "address",
          "name": "sender",
          "type": "address"
        },
        {
          "indexed": false,
          "internalType": "uint256",
          "name": "value",
          "type": "uint256"
        },
        {
          "indexed": false,
          "internalType": "uint256",
          "name": "balance",
          "type": "uint256"
        }
      ],
      "name": "Deposit",
      "type": "event"
    },
    {
      "anonymous": false,
      "inputs": [
        {
          "indexed": true,
          "internalType": "address",
          "name": "owner",
          "type": "address"
        },
        {
          "indexed": true,
          "internalType": "uint256",
          "name": "txIndex",
          "type": "uint256"
        }
      ],
      "name": "ExecuteTransaction",
      "type": "event"
    },
    {
      "anonymous": false,
      "inputs": [
        {
          "indexed": true,
          "internalType": "address",
          "name": "owner",
          "type": "address"
        },
        {
          "indexed": true,
          "internalType": "uint256",
          "name": "txIndex",
          "type": "uint256"
        },
        {
          "indexed": true,
          "internalType": "address",
          "name": "to",
          "type": "address"
        },
        {
          "indexed": false,
          "internalType": "uint256",
          "name": "value",
          "type": "uint256"
        },
        {
          "indexed": false,
          "internalType": "bytes",
          "name": "data",
          "type": "bytes"
        },
        {
          "indexed": false,
          "internalType": "enum Multisig.TransactionType",
          "name": "txType",
          "type": "uint8"
        }
      ],
      "name": "NewTransaction",
      "type": "event"
    },
    {
      "anonymous": false,
      "inputs": [
        {
          "indexed": true,
          "internalType": "address",
          "name": "owner",
          "type": "address"
        },
        {
          "indexed": true,
          "internalType": "uint256",
          "name": "txIndex",
          "type": "uint256"
        }
      ],
      "name": "UnApproveTransaction",
      "type": "event"
    },
    {
      "inputs": [
        {
          "internalType": "address",
          "name": "_to",
          "type": "address"
        },
        {
          "internalType": "uint256",
          "name": "_value",
          "type": "uint256"
        },
        {
          "internalType": "bytes",
          "name": "_data",
          "type": "bytes"
        },
        {
          "internalType": "address[]",
          "name": "_owners",
          "type": "address[]"
        },
        {
          "internalType": "uint256",
          "name": "_threshold",
          "type": "uint256"
        },
        {
          "internalType": "enum Multisig.TransactionType",
          "name": "_txType",
          "type": "uint8"
        }
      ],
      "name": "addTransaction",
      "outputs": [],
      "stateMutability": "nonpayable",
      "type": "function"
    },
    {
      "inputs": [
        {
          "internalType": "uint256",
          "name": "_txIndex",
          "type": "uint256"
        }
      ],
      "name": "approveTransaction",
      "outputs": [],
      "stateMutability": "nonpayable",
      "type": "function"
    },
    {
      "inputs": [
        {
          "internalType": "uint256",
          "name": "_txIndex",
          "type": "uint256"
        }
      ],
      "name": "deleteTransaction",
      "outputs": [],
      "stateMutability": "nonpayable",
      "type": "function"
    },
    {
      "inputs": [],
      "name": "deposit",
      "outputs": [],
      "stateMutability": "payable",
      "type": "function"
    },
    {
      "inputs": [
        {
          "internalType": "uint256",
          "name": "_txIndex",
          "type": "uint256"
        }
      ],
      "name": "executeTransaction",
      "outputs": [],
      "stateMutability": "nonpayable",
      "type": "function"
    },
    {
      "inputs": [],
      "name": "getOwners",
      "outputs": [
        {
          "internalType": "address[]",
          "name": "",
          "type": "address[]"
        }
      ],
      "stateMutability": "view",
      "type": "function"
    },
    {
      "inputs": [
        {
          "internalType": "uint256",
          "name": "_txIndex",
          "type": "uint256"
        }
      ],
      "name": "getTransaction",
      "outputs": [
        {
          "internalType": "address",
          "name": "to",
          "type": "address"
        },
        {
          "internalType": "uint256",
          "name": "value",
          "type": "uint256"
        },
        {
          "internalType": "bytes",
          "name": "data",
          "type": "bytes"
        },
        {
          "internalType": "bool",
          "name": "didExecute",
          "type": "bool"
        },
        {
          "internalType": "uint256",
          "name": "confirmationsCount",
          "type": "uint256"
        }
      ],
      "stateMutability": "view",
      "type": "function"
    },
    {
      "inputs": [],
      "name": "getTransactionCount",
      "outputs": [
        {
          "internalType": "uint256",
          "name": "",
          "type": "uint256"
        }
      ],
      "stateMutability": "view",
      "type": "function"
    },
    {
      "inputs": [],
      "name": "getTransactions",
      "outputs": [
        {
          "components": [
            {
              "internalType": "uint256",
              "name": "createdAt",
              "type": "uint256"
            },
            {
              "internalType": "bytes32",
              "name": "txHash",
              "type": "bytes32"
            },
            {
              "internalType": "uint256",
              "name": "index",
              "type": "uint256"
            },
            {
              "internalType": "address",
              "name": "to",
              "type": "address"
            },
            {
              "internalType": "uint256",
              "name": "value",
              "type": "uint256"
            },
            {
              "internalType": "bytes",
              "name": "data",
              "type": "bytes"
            },
            {
              "internalType": "bool",
              "name": "didExecute",
              "type": "bool"
            },
            {
              "internalType": "bool",
              "name": "isDeleted",
              "type": "bool"
            },
            {
              "internalType": "address[]",
              "name": "signers",
              "type": "address[]"
            },
            {
              "internalType": "address[]",
              "name": "owners",
              "type": "address[]"
            },
            {
              "internalType": "uint256",
              "name": "threshold",
              "type": "uint256"
            },
            {
              "internalType": "enum Multisig.TransactionType",
              "name": "txType",
              "type": "uint8"
            },
            {
              "internalType": "uint256",
              "name": "confirmationsCount",
              "type": "uint256"
            }
          ],
          "internalType": "struct Multisig.Tx[]",
          "name": "",
          "type": "tuple[]"
        }
      ],
      "stateMutability": "view",
      "type": "function"
    },
    {
      "inputs": [
        {
          "internalType": "uint256",
          "name": "",
          "type": "uint256"
        },
        {
          "internalType": "address",
          "name": "",
          "type": "address"
        }
      ],
      "name": "isApprovedByOwner",
      "outputs": [
        {
          "internalType": "bool",
          "name": "",
          "type": "bool"
        }
      ],
      "stateMutability": "view",
      "type": "function"
    },
    {
      "inputs": [
        {
          "internalType": "uint256",
          "name": "index",
          "type": "uint256"
        }
      ],
      "name": "isApprovedBySender",
      "outputs": [
        {
          "internalType": "bool",
          "name": "",
          "type": "bool"
        }
      ],
      "stateMutability": "view",
      "type": "function"
    },
    {
      "inputs": [
        {
          "internalType": "address",
          "name": "",
          "type": "address"
        }
      ],
      "name": "isOwner",
      "outputs": [
        {
          "internalType": "bool",
          "name": "",
          "type": "bool"
        }
      ],
      "stateMutability": "view",
      "type": "function"
    },
    {
      "inputs": [
        {
          "internalType": "uint256",
          "name": "",
          "type": "uint256"
        }
      ],
      "name": "owners",
      "outputs": [
        {
          "internalType": "address",
          "name": "",
          "type": "address"
        }
      ],
      "stateMutability": "view",
      "type": "function"
    },
    {
      "inputs": [
        {
          "internalType": "uint256",
          "name": "_txIndex",
          "type": "uint256"
        }
      ],
      "name": "revokeApproval",
      "outputs": [],
      "stateMutability": "nonpayable",
      "type": "function"
    },
    {
      "inputs": [],
      "name": "threshold",
      "outputs": [
        {
          "internalType": "uint256",
          "name": "",
          "type": "uint256"
        }
      ],
      "stateMutability": "view",
      "type": "function"
    },
    {
      "inputs": [
        {
          "internalType": "uint256",
          "name": "",
          "type": "uint256"
        }
      ],
      "name": "transactions",
      "outputs": [
        {
          "internalType": "uint256",
          "name": "createdAt",
          "type": "uint256"
        },
        {
          "internalType": "bytes32",
          "name": "txHash",
          "type": "bytes32"
        },
        {
          "internalType": "uint256",
          "name": "index",
          "type": "uint256"
        },
        {
          "internalType": "address",
          "name": "to",
          "type": "address"
        },
        {
          "internalType": "uint256",
          "name": "value",
          "type": "uint256"
        },
        {
          "internalType": "bytes",
          "name": "data",
          "type": "bytes"
        },
        {
          "internalType": "bool",
          "name": "didExecute",
          "type": "bool"
        },
        {
          "internalType": "bool",
          "name": "isDeleted",
          "type": "bool"
        },
        {
          "internalType": "uint256",
          "name": "threshold",
          "type": "uint256"
        },
        {
          "internalType": "enum Multisig.TransactionType",
          "name": "txType",
          "type": "uint8"
        },
        {
          "internalType": "uint256",
          "name": "confirmationsCount",
          "type": "uint256"
        }
      ],
      "stateMutability": "view",
      "type": "function"
    }
  ],
  "bytecode": "0x60806040523480156200001157600080fd5b5060405162003599380380620035998339818101604052810190620000379190620004e3565b60008251141562000074576040517fbd8f717200000000000000000000000000000000000000000000000000000000815260040160405180910390fd5b815181118062000085575060008111155b15620000bd576040517fafa0f7ed00000000000000000000000000000000000000000000000000000000815260040160405180910390fd5b60005b8251811015620002aa576000838281518110620000e257620000e162000549565b5b60200260200101519050600073ffffffffffffffffffffffffffffffffffffffff168173ffffffffffffffffffffffffffffffffffffffff16141562000154576040517f7e4b1d7600000000000000000000000000000000000000000000000000000000815260040160405180910390fd5b600160008273ffffffffffffffffffffffffffffffffffffffff1673ffffffffffffffffffffffffffffffffffffffff16815260200190815260200160002060009054906101000a900460ff1615620001d9576040517f9fde231d00000000000000000000000000000000000000000000000000000000815260040160405180910390fd5b60018060008373ffffffffffffffffffffffffffffffffffffffff1673ffffffffffffffffffffffffffffffffffffffff16815260200190815260200160002060006101000a81548160ff0219169083151502179055506000819080600181540180825580915050600190039060005260206000200160009091909190916101000a81548173ffffffffffffffffffffffffffffffffffffffff021916908373ffffffffffffffffffffffffffffffffffffffff160217905550508080620002a190620005a7565b915050620000c0565b50806002819055505050620005f5565b6000604051905090565b600080fd5b600080fd5b600080fd5b6000601f19601f8301169050919050565b7f4e487b7100000000000000000000000000000000000000000000000000000000600052604160045260246000fd5b6200031e82620002d3565b810181811067ffffffffffffffff8211171562000340576200033f620002e4565b5b80604052505050565b600062000355620002ba565b905062000363828262000313565b919050565b600067ffffffffffffffff821115620003865762000385620002e4565b5b602082029050602081019050919050565b600080fd5b600073ffffffffffffffffffffffffffffffffffffffff82169050919050565b6000620003c9826200039c565b9050919050565b620003db81620003bc565b8114620003e757600080fd5b50565b600081519050620003fb81620003d0565b92915050565b600062000418620004128462000368565b62000349565b905080838252602082019050602084028301858111156200043e576200043d62000397565b5b835b818110156200046b5780620004568882620003ea565b84526020840193505060208101905062000440565b5050509392505050565b600082601f8301126200048d576200048c620002ce565b5b81516200049f84826020860162000401565b91505092915050565b6000819050919050565b620004bd81620004a8565b8114620004c957600080fd5b50565b600081519050620004dd81620004b2565b92915050565b60008060408385031215620004fd57620004fc620002c4565b5b600083015167ffffffffffffffff8111156200051e576200051d620002c9565b5b6200052c8582860162000475565b92505060206200053f85828601620004cc565b9150509250929050565b7f4e487b7100000000000000000000000000000000000000000000000000000000600052603260045260246000fd5b7f4e487b7100000000000000000000000000000000000000000000000000000000600052601160045260246000fd5b6000620005b482620004a8565b91507fffffffffffffffffffffffffffffffffffffffffffffffffffffffffffffffff821415620005ea57620005e962000578565b5b600182019050919050565b612f9480620006056000396000f3fe6080604052600436106100f25760003560e01c806367aadc141161008a578063b1e130fc11610059578063b1e130fc1461035d578063d0e30db014610386578063df91143f14610390578063ee22610b146103cd576100f2565b806367aadc141461029757806383920e90146102c05780639ace38c2146102eb578063a0e67e2b14610332576100f2565b80632e7700f0116100c65780632e7700f0146101c35780632f54bf6e146101ee57806333ea3dc81461022b57806342cde4e81461026c576100f2565b8062e9c006146100f75780630168521114610120578063025e7c271461015d578063242232d11461019a575b600080fd5b34801561010357600080fd5b5061011e600480360381019061011991906121e4565b6103f6565b005b34801561012c57600080fd5b50610147600480360381019061014291906121e4565b610636565b604051610154919061222c565b60405180910390f35b34801561016957600080fd5b50610184600480360381019061017f91906121e4565b61069d565b6040516101919190612288565b60405180910390f35b3480156101a657600080fd5b506101c160048036038101906101bc91906121e4565b6106dc565b005b3480156101cf57600080fd5b506101d86109fa565b6040516101e591906122b2565b60405180910390f35b3480156101fa57600080fd5b50610215600480360381019061021091906122f9565b610a07565b604051610222919061222c565b60405180910390f35b34801561023757600080fd5b50610252600480360381019061024d91906121e4565b610a27565b6040516102639594939291906123bf565b60405180910390f35b34801561027857600080fd5b50610281610b3a565b60405161028e91906122b2565b60405180910390f35b3480156102a357600080fd5b506102be60048036038101906102b9919061263b565b610b40565b005b3480156102cc57600080fd5b506102d5610eb4565b6040516102e29190612a9f565b60405180910390f35b3480156102f757600080fd5b50610312600480360381019061030d91906121e4565b6111c5565b6040516103299b9a99989796959493929190612adf565b60405180910390f35b34801561033e57600080fd5b506103476112fe565b6040516103549190612c00565b60405180910390f35b34801561036957600080fd5b50610384600480360381019061037f91906121e4565b61138c565b005b61038e611723565b005b34801561039c57600080fd5b506103b760048036038101906103b29190612c22565b611775565b6040516103c4919061222c565b60405180910390f35b3480156103d957600080fd5b506103f460048036038101906103ef91906121e4565b6117a4565b005b600160003373ffffffffffffffffffffffffffffffffffffffff1673ffffffffffffffffffffffffffffffffffffffff16815260200190815260200160002060009054906101000a900460ff16610479576040517fb87b076d00000000000000000000000000000000000000000000000000000000815260040160405180910390fd5b8060048054905081106104b8576040517fc304076d00000000000000000000000000000000000000000000000000000000815260040160405180910390fd5b81600481815481106104cd576104cc612c62565b5b90600052602060002090600c020160060160009054906101000a900460ff1615610523576040517fecf55dc000000000000000000000000000000000000000000000000000000000815260040160405180910390fd5b60006004848154811061053957610538612c62565b5b90600052602060002090600c020190508060060160019054906101000a900460ff16610591576040517fa7d6531f00000000000000000000000000000000000000000000000000000000815260040160405180910390fd5b600081600b0154146105cf576040517f016cba4100000000000000000000000000000000000000000000000000000000815260040160405180910390fd5b60018160060160016101000a81548160ff021916908315150217905550833373ffffffffffffffffffffffffffffffffffffffff167f7c709d18930bc948c17b828478f75d33a85c7a37dd8aea2ed2d21e507898c2e560405160405180910390a350505050565b60006005600083815260200190815260200160002060003373ffffffffffffffffffffffffffffffffffffffff1673ffffffffffffffffffffffffffffffffffffffff16815260200190815260200160002060009054906101000a900460ff169050919050565b600081815481106106ad57600080fd5b906000526020600020016000915054906101000a900473ffffffffffffffffffffffffffffffffffffffff1681565b600160003373ffffffffffffffffffffffffffffffffffffffff1673ffffffffffffffffffffffffffffffffffffffff16815260200190815260200160002060009054906101000a900460ff1661075f576040517fb87b076d00000000000000000000000000000000000000000000000000000000815260040160405180910390fd5b80600480549050811061079e576040517fc304076d00000000000000000000000000000000000000000000000000000000815260040160405180910390fd5b81600481815481106107b3576107b2612c62565b5b90600052602060002090600c020160060160009054906101000a900460ff1615610809576040517fecf55dc000000000000000000000000000000000000000000000000000000000815260040160405180910390fd5b826005600082815260200190815260200160002060003373ffffffffffffffffffffffffffffffffffffffff1673ffffffffffffffffffffffffffffffffffffffff16815260200190815260200160002060009054906101000a900460ff161561089f576040517feeda094400000000000000000000000000000000000000000000000000000000815260040160405180910390fd5b6000600485815481106108b5576108b4612c62565b5b90600052602060002090600c02019050600181600b0160008282546108da9190612cc0565b9250508190555060016005600087815260200190815260200160002060003373ffffffffffffffffffffffffffffffffffffffff1673ffffffffffffffffffffffffffffffffffffffff16815260200190815260200160002060006101000a81548160ff02191690831515021790555080600701339080600181540180825580915050600190039060005260206000200160009091909190916101000a81548173ffffffffffffffffffffffffffffffffffffffff021916908373ffffffffffffffffffffffffffffffffffffffff160217905550843373ffffffffffffffffffffffffffffffffffffffff167ffa624aadd8a0eae4ee975eae5cf13c9803b361b7fa2d832427db6207c088219360405160405180910390a35050505050565b6000600480549050905090565b60016020528060005260406000206000915054906101000a900460ff1681565b6000806060600080600060048781548110610a4557610a44612c62565b5b90600052602060002090600c020190508060030160009054906101000a900473ffffffffffffffffffffffffffffffffffffffff168160040154826005018360060160009054906101000a900460ff1684600b0154828054610aa690612d45565b80601f0160208091040260200160405190810160405280929190818152602001828054610ad290612d45565b8015610b1f5780601f10610af457610100808354040283529160200191610b1f565b820191906000526020600020905b815481529060010190602001808311610b0257829003601f168201915b50505050509250955095509550955095505091939590929450565b60025481565b600160003373ffffffffffffffffffffffffffffffffffffffff1673ffffffffffffffffffffffffffffffffffffffff16815260200190815260200160002060009054906101000a900460ff16610bc3576040517fb87b076d00000000000000000000000000000000000000000000000000000000815260040160405180910390fd5b600060048054905090506004604051806101a001604052804281526020018342604051602001610bf4929190612d98565b6040516020818303038152906040528051906020012081526020018381526020018973ffffffffffffffffffffffffffffffffffffffff168152602001888152602001878152602001600015158152602001600015158152602001600067ffffffffffffffff811115610c6a57610c69612423565b5b604051908082528060200260200182016040528015610c985781602001602082028036833780820191505090505b508152602001868152602001858152602001846003811115610cbd57610cbc61286b565b5b8152602001600081525090806001815401808255809150506001900390600052602060002090600c020160009091909190915060008201518160000155602082015181600101556040820151816002015560608201518160030160006101000a81548173ffffffffffffffffffffffffffffffffffffffff021916908373ffffffffffffffffffffffffffffffffffffffff1602179055506080820151816004015560a0820151816005019080519060200190610d7b92919061204c565b5060c08201518160060160006101000a81548160ff02191690831515021790555060e08201518160060160016101000a81548160ff021916908315150217905550610100820151816007019080519060200190610dd99291906120d2565b50610120820151816008019080519060200190610df79291906120d2565b50610140820151816009015561016082015181600a0160006101000a81548160ff02191690836003811115610e2f57610e2e61286b565b5b021790555061018082015181600b015550508673ffffffffffffffffffffffffffffffffffffffff16813373ffffffffffffffffffffffffffffffffffffffff167fc989d135c1b3b2b228ef4f07a7ceed341584db4f68e43211547396604ba7208c898987604051610ea393929190612dc4565b60405180910390a450505050505050565b60606004805480602002602001604051908101604052809291908181526020016000905b828210156111bc57838290600052602060002090600c0201604051806101a00160405290816000820154815260200160018201548152602001600282015481526020016003820160009054906101000a900473ffffffffffffffffffffffffffffffffffffffff1673ffffffffffffffffffffffffffffffffffffffff1673ffffffffffffffffffffffffffffffffffffffff16815260200160048201548152602001600582018054610f8a90612d45565b80601f0160208091040260200160405190810160405280929190818152602001828054610fb690612d45565b80156110035780601f10610fd857610100808354040283529160200191611003565b820191906000526020600020905b815481529060010190602001808311610fe657829003601f168201915b505050505081526020016006820160009054906101000a900460ff161515151581526020016006820160019054906101000a900460ff16151515158152602001600782018054806020026020016040519081016040528092919081815260200182805480156110c757602002820191906000526020600020905b8160009054906101000a900473ffffffffffffffffffffffffffffffffffffffff1673ffffffffffffffffffffffffffffffffffffffff168152602001906001019080831161107d575b505050505081526020016008820180548060200260200160405190810160405280929190818152602001828054801561115557602002820191906000526020600020905b8160009054906101000a900473ffffffffffffffffffffffffffffffffffffffff1673ffffffffffffffffffffffffffffffffffffffff168152602001906001019080831161110b575b5050505050815260200160098201548152602001600a820160009054906101000a900460ff16600381111561118d5761118c61286b565b5b600381111561119f5761119e61286b565b5b8152602001600b8201548152505081526020019060010190610ed8565b50505050905090565b600481815481106111d557600080fd5b90600052602060002090600c02016000915090508060000154908060010154908060020154908060030160009054906101000a900473ffffffffffffffffffffffffffffffffffffffff169080600401549080600501805461123690612d45565b80601f016020809104026020016040519081016040528092919081815260200182805461126290612d45565b80156112af5780601f10611284576101008083540402835291602001916112af565b820191906000526020600020905b81548152906001019060200180831161129257829003601f168201915b5050505050908060060160009054906101000a900460ff16908060060160019054906101000a900460ff169080600901549080600a0160009054906101000a900460ff169080600b015490508b565b6060600080548060200260200160405190810160405280929190818152602001828054801561138257602002820191906000526020600020905b8160009054906101000a900473ffffffffffffffffffffffffffffffffffffffff1673ffffffffffffffffffffffffffffffffffffffff1681526020019060010190808311611338575b5050505050905090565b600160003373ffffffffffffffffffffffffffffffffffffffff1673ffffffffffffffffffffffffffffffffffffffff16815260200190815260200160002060009054906101000a900460ff1661140f576040517fb87b076d00000000000000000000000000000000000000000000000000000000815260040160405180910390fd5b80600480549050811061144e576040517fc304076d00000000000000000000000000000000000000000000000000000000815260040160405180910390fd5b816004818154811061146357611462612c62565b5b90600052602060002090600c020160060160009054906101000a900460ff16156114b9576040517fecf55dc000000000000000000000000000000000000000000000000000000000815260040160405180910390fd5b6000600484815481106114cf576114ce612c62565b5b90600052602060002090600c020190506005600085815260200190815260200160002060003373ffffffffffffffffffffffffffffffffffffffff1673ffffffffffffffffffffffffffffffffffffffff16815260200190815260200160002060009054906101000a900460ff16611573576040517f5ccba97200000000000000000000000000000000000000000000000000000000815260040160405180910390fd5b600181600b0160008282546115889190612e02565b9250508190555060006005600086815260200190815260200160002060003373ffffffffffffffffffffffffffffffffffffffff1673ffffffffffffffffffffffffffffffffffffffff16815260200190815260200160002060006101000a81548160ff02191690831515021790555060005b816007018054905081116116d8573373ffffffffffffffffffffffffffffffffffffffff1682600701828154811061163657611635612c62565b5b9060005260206000200160009054906101000a900473ffffffffffffffffffffffffffffffffffffffff1673ffffffffffffffffffffffffffffffffffffffff1614156116c55781600701818154811061169357611692612c62565b5b9060005260206000200160006101000a81549073ffffffffffffffffffffffffffffffffffffffff02191690556116d8565b80806116d090612e36565b9150506115fb565b50833373ffffffffffffffffffffffffffffffffffffffff167ff3370ef2e145eb508f15cc1f210b90a3d6ca37e14ec4b695fb529df41e08d58860405160405180910390a350505050565b3373ffffffffffffffffffffffffffffffffffffffff167f90890809c654f11d6e72a28fa60149770a0d11ec6c92319d6ceb2bb0a4ea1a15344760405161176b929190612e7f565b60405180910390a2565b60056020528160005260406000206020528060005260406000206000915091509054906101000a900460ff1681565b600160003373ffffffffffffffffffffffffffffffffffffffff1673ffffffffffffffffffffffffffffffffffffffff16815260200190815260200160002060009054906101000a900460ff16611827576040517fb87b076d00000000000000000000000000000000000000000000000000000000815260040160405180910390fd5b806004805490508110611866576040517fc304076d00000000000000000000000000000000000000000000000000000000815260040160405180910390fd5b816004818154811061187b5761187a612c62565b5b90600052602060002090600c020160060160009054906101000a900460ff16156118d1576040517fecf55dc000000000000000000000000000000000000000000000000000000000815260040160405180910390fd5b6000600484815481106118e7576118e6612c62565b5b90600052602060002090600c0201905060025481600b01541015611937576040517f9d36c94b00000000000000000000000000000000000000000000000000000000815260040160405180910390fd5b8060060160019054906101000a900460ff1615611980576040517ff7bb06c100000000000000000000000000000000000000000000000000000000815260040160405180910390fd5b60018160060160006101000a81548160ff0219169083151502179055506003808111156119b0576119af61286b565b5b81600a0160009054906101000a900460ff1660038111156119d4576119d361286b565b5b1415611aac5760008160030160009054906101000a900473ffffffffffffffffffffffffffffffffffffffff1673ffffffffffffffffffffffffffffffffffffffff16826004015483600501604051611a2d9190612f47565b60006040518083038185875af1925050503d8060008114611a6a576040519150601f19603f3d011682016040523d82523d6000602084013e611a6f565b606091505b5050905080611aaa576040517f6543559d00000000000000000000000000000000000000000000000000000000815260040160405180910390fd5b505b60006003811115611ac057611abf61286b565b5b81600a0160009054906101000a900460ff166003811115611ae457611ae361286b565b5b1415611b7c57611b7b81600801805480602002602001604051908101604052809291908181526020018280548015611b7157602002820191906000526020600020905b8160009054906101000a900473ffffffffffffffffffffffffffffffffffffffff1673ffffffffffffffffffffffffffffffffffffffff1681526020019060010190808311611b27575b5050505050611cc0565b5b60016003811115611b9057611b8f61286b565b5b81600a0160009054906101000a900460ff166003811115611bb457611bb361286b565b5b1415611bc857611bc78160090154611f74565b5b60026003811115611bdc57611bdb61286b565b5b81600a0160009054906101000a900460ff166003811115611c0057611bff61286b565b5b1415611c76578060030160009054906101000a900473ffffffffffffffffffffffffffffffffffffffff1673ffffffffffffffffffffffffffffffffffffffff166108fc82600401549081150290604051600060405180830381858888f19350505050158015611c74573d6000803e3d6000fd5b505b833373ffffffffffffffffffffffffffffffffffffffff167f5445f318f4f5fcfb66592e68e0cc5822aa15664039bd5f0ffde24c5a8142b1ac60405160405180910390a350505050565b600160003373ffffffffffffffffffffffffffffffffffffffff1673ffffffffffffffffffffffffffffffffffffffff16815260200190815260200160002060009054906101000a900460ff16611d43576040517fb87b076d00000000000000000000000000000000000000000000000000000000815260040160405180910390fd5b600080611d50919061215c565b600081511415611d8c576040517fbd8f717200000000000000000000000000000000000000000000000000000000815260040160405180910390fd5b60005b8151811015611f70576000828281518110611dad57611dac612c62565b5b60200260200101519050600073ffffffffffffffffffffffffffffffffffffffff168173ffffffffffffffffffffffffffffffffffffffff161415611e1e576040517f7e4b1d7600000000000000000000000000000000000000000000000000000000815260040160405180910390fd5b600160008273ffffffffffffffffffffffffffffffffffffffff1673ffffffffffffffffffffffffffffffffffffffff16815260200190815260200160002060009054906101000a900460ff1615611ea2576040517f9fde231d00000000000000000000000000000000000000000000000000000000815260040160405180910390fd5b60018060008373ffffffffffffffffffffffffffffffffffffffff1673ffffffffffffffffffffffffffffffffffffffff16815260200190815260200160002060006101000a81548160ff0219169083151502179055506000819080600181540180825580915050600190039060005260206000200160009091909190916101000a81548173ffffffffffffffffffffffffffffffffffffffff021916908373ffffffffffffffffffffffffffffffffffffffff160217905550508080611f6890612e36565b915050611d8f565b5050565b600160003373ffffffffffffffffffffffffffffffffffffffff1673ffffffffffffffffffffffffffffffffffffffff16815260200190815260200160002060009054906101000a900460ff16611ff7576040517fb87b076d00000000000000000000000000000000000000000000000000000000815260040160405180910390fd5b60008054905081118061200b575060008111155b15612042576040517fafa0f7ed00000000000000000000000000000000000000000000000000000000815260040160405180910390fd5b8060028190555050565b82805461205890612d45565b90600052602060002090601f01602090048101928261207a57600085556120c1565b82601f1061209357805160ff19168380011785556120c1565b828001600101855582156120c1579182015b828111156120c05782518255916020019190600101906120a5565b5b5090506120ce919061217d565b5090565b82805482825590600052602060002090810192821561214b579160200282015b8281111561214a5782518260006101000a81548173ffffffffffffffffffffffffffffffffffffffff021916908373ffffffffffffffffffffffffffffffffffffffff160217905550916020019190600101906120f2565b5b509050612158919061217d565b5090565b508054600082559060005260206000209081019061217a919061217d565b50565b5b8082111561219657600081600090555060010161217e565b5090565b6000604051905090565b600080fd5b600080fd5b6000819050919050565b6121c1816121ae565b81146121cc57600080fd5b50565b6000813590506121de816121b8565b92915050565b6000602082840312156121fa576121f96121a4565b5b6000612208848285016121cf565b91505092915050565b60008115159050919050565b61222681612211565b82525050565b6000602082019050612241600083018461221d565b92915050565b600073ffffffffffffffffffffffffffffffffffffffff82169050919050565b600061227282612247565b9050919050565b61228281612267565b82525050565b600060208201905061229d6000830184612279565b92915050565b6122ac816121ae565b82525050565b60006020820190506122c760008301846122a3565b92915050565b6122d681612267565b81146122e157600080fd5b50565b6000813590506122f3816122cd565b92915050565b60006020828403121561230f5761230e6121a4565b5b600061231d848285016122e4565b91505092915050565b600081519050919050565b600082825260208201905092915050565b60005b83811015612360578082015181840152602081019050612345565b8381111561236f576000848401525b50505050565b6000601f19601f8301169050919050565b600061239182612326565b61239b8185612331565b93506123ab818560208601612342565b6123b481612375565b840191505092915050565b600060a0820190506123d46000830188612279565b6123e160208301876122a3565b81810360408301526123f38186612386565b9050612402606083018561221d565b61240f60808301846122a3565b9695505050505050565b600080fd5b600080fd5b7f4e487b7100000000000000000000000000000000000000000000000000000000600052604160045260246000fd5b61245b82612375565b810181811067ffffffffffffffff8211171561247a57612479612423565b5b80604052505050565b600061248d61219a565b90506124998282612452565b919050565b600067ffffffffffffffff8211156124b9576124b8612423565b5b6124c282612375565b9050602081019050919050565b82818337600083830152505050565b60006124f16124ec8461249e565b612483565b90508281526020810184848401111561250d5761250c61241e565b5b6125188482856124cf565b509392505050565b600082601f83011261253557612534612419565b5b81356125458482602086016124de565b91505092915050565b600067ffffffffffffffff82111561256957612568612423565b5b602082029050602081019050919050565b600080fd5b600061259261258d8461254e565b612483565b905080838252602082019050602084028301858111156125b5576125b461257a565b5b835b818110156125de57806125ca88826122e4565b8452602084019350506020810190506125b7565b5050509392505050565b600082601f8301126125fd576125fc612419565b5b813561260d84826020860161257f565b91505092915050565b6004811061262357600080fd5b50565b60008135905061263581612616565b92915050565b60008060008060008060c08789031215612658576126576121a4565b5b600061266689828a016122e4565b965050602061267789828a016121cf565b955050604087013567ffffffffffffffff811115612698576126976121a9565b5b6126a489828a01612520565b945050606087013567ffffffffffffffff8111156126c5576126c46121a9565b5b6126d189828a016125e8565b93505060806126e289828a016121cf565b92505060a06126f389828a01612626565b9150509295509295509295565b600081519050919050565b600082825260208201905092915050565b6000819050602082019050919050565b612735816121ae565b82525050565b6000819050919050565b61274e8161273b565b82525050565b61275d81612267565b82525050565b600082825260208201905092915050565b600061277f82612326565b6127898185612763565b9350612799818560208601612342565b6127a281612375565b840191505092915050565b6127b681612211565b82525050565b600081519050919050565b600082825260208201905092915050565b6000819050602082019050919050565b60006127f48383612754565b60208301905092915050565b6000602082019050919050565b6000612818826127bc565b61282281856127c7565b935061282d836127d8565b8060005b8381101561285e57815161284588826127e8565b975061285083612800565b925050600181019050612831565b5085935050505092915050565b7f4e487b7100000000000000000000000000000000000000000000000000000000600052602160045260246000fd5b600481106128ab576128aa61286b565b5b50565b60008190506128bc8261289a565b919050565b60006128cc826128ae565b9050919050565b6128dc816128c1565b82525050565b60006101a0830160008301516128fb600086018261272c565b50602083015161290e6020860182612745565b506040830151612921604086018261272c565b5060608301516129346060860182612754565b506080830151612947608086018261272c565b5060a083015184820360a086015261295f8282612774565b91505060c083015161297460c08601826127ad565b5060e083015161298760e08601826127ad565b506101008301518482036101008601526129a1828261280d565b9150506101208301518482036101208601526129bd828261280d565b9150506101408301516129d461014086018261272c565b506101608301516129e96101608601826128d3565b506101808301516129fe61018086018261272c565b508091505092915050565b6000612a1583836128e2565b905092915050565b6000602082019050919050565b6000612a3582612700565b612a3f818561270b565b935083602082028501612a518561271c565b8060005b85811015612a8d5784840389528151612a6e8582612a09565b9450612a7983612a1d565b925060208a01995050600181019050612a55565b50829750879550505050505092915050565b60006020820190508181036000830152612ab98184612a2a565b905092915050565b612aca8161273b565b82525050565b612ad9816128c1565b82525050565b600061016082019050612af5600083018e6122a3565b612b02602083018d612ac1565b612b0f604083018c6122a3565b612b1c606083018b612279565b612b29608083018a6122a3565b81810360a0830152612b3b8189612386565b9050612b4a60c083018861221d565b612b5760e083018761221d565b612b656101008301866122a3565b612b73610120830185612ad0565b612b816101408301846122a3565b9c9b505050505050505050505050565b600082825260208201905092915050565b6000612bad826127bc565b612bb78185612b91565b9350612bc2836127d8565b8060005b83811015612bf3578151612bda88826127e8565b9750612be583612800565b925050600181019050612bc6565b5085935050505092915050565b60006020820190508181036000830152612c1a8184612ba2565b905092915050565b60008060408385031215612c3957612c386121a4565b5b6000612c47858286016121cf565b9250506020612c58858286016122e4565b9150509250929050565b7f4e487b7100000000000000000000000000000000000000000000000000000000600052603260045260246000fd5b7f4e487b7100000000000000000000000000000000000000000000000000000000600052601160045260246000fd5b6000612ccb826121ae565b9150612cd6836121ae565b9250827fffffffffffffffffffffffffffffffffffffffffffffffffffffffffffffffff03821115612d0b57612d0a612c91565b5b828201905092915050565b7f4e487b7100000000000000000000000000000000000000000000000000000000600052602260045260246000fd5b60006002820490506001821680612d5d57607f821691505b60208210811415612d7157612d70612d16565b5b50919050565b6000819050919050565b612d92612d8d826121ae565b612d77565b82525050565b6000612da48285612d81565b602082019150612db48284612d81565b6020820191508190509392505050565b6000606082019050612dd960008301866122a3565b8181036020830152612deb8185612386565b9050612dfa6040830184612ad0565b949350505050565b6000612e0d826121ae565b9150612e18836121ae565b925082821015612e2b57612e2a612c91565b5b828203905092915050565b6000612e41826121ae565b91507fffffffffffffffffffffffffffffffffffffffffffffffffffffffffffffffff821415612e7457612e73612c91565b5b600182019050919050565b6000604082019050612e9460008301856122a3565b612ea160208301846122a3565b9392505050565b600081905092915050565b60008190508160005260206000209050919050565b60008154612ed581612d45565b612edf8186612ea8565b94506001821660008114612efa5760018114612f0b57612f3e565b60ff19831686528186019350612f3e565b612f1485612eb3565b60005b83811015612f3657815481890152600182019150602081019050612f17565b838801955050505b50505092915050565b6000612f538284612ec8565b91508190509291505056fea26469706673582212202f02223ce44226590dde1b6226c7d5eeeee84550a46720cc72113a4ed6e7a03264736f6c63430008090033",
  "linkReferences": {},
  "deployedLinkReferences": {}
}