{
  "_format": "hh-sol-artifact-1",
  "contractName": "Multisig",
  "sourceName": "contracts/Multisig.sol",
  "abi": [
    {
      "inputs": [
        {
          "internalType": "address[]",
          "name": "_owners",
          "type": "address[]"
        },
        {
          "internalType": "uint256",
          "name": "_threshold",
          "type": "uint256"
        }
      ],
      "stateMutability": "nonpayable",
      "type": "constructor"
    },
    {
      "inputs": [],
      "name": "Multisig__Cannot_Delete_Signed_Transaction",
      "type": "error"
    },
    {
      "inputs": [],
      "name": "Multisig__Cannot_Execute_Deleted_Transaction",
      "type": "error"
    },
    {
      "inputs": [],
      "name": "Multisig__Invalid_Owner",
      "type": "error"
    },
    {
      "inputs": [],
      "name": "Multisig__Invalid_Threshold",
      "type": "error"
    },
    {
      "inputs": [],
      "name": "Multisig__Not_An_Owner",
      "type": "error"
    },
    {
      "inputs": [],
      "name": "Multisig__Not_Enough_Owners",
      "type": "error"
    },
    {
      "inputs": [],
      "name": "Multisig__Not_Enough_Signers",
      "type": "error"
    },
    {
      "inputs": [],
      "name": "Multisig__Owners_Must_Be_Unique",
      "type": "error"
    },
    {
      "inputs": [],
      "name": "Multisig__Transaction_Already_Deleted",
      "type": "error"
    },
    {
      "inputs": [],
      "name": "Multisig__Tx_Already_Approved",
      "type": "error"
    },
    {
      "inputs": [],
      "name": "Multisig__Tx_Already_Executed",
      "type": "error"
    },
    {
      "inputs": [],
      "name": "Multisig__Tx_Does_Not_Exist",
      "type": "error"
    },
    {
      "inputs": [],
      "name": "Multisig__Tx_Execution_Failed",
      "type": "error"
    },
    {
      "inputs": [],
      "name": "Multisig__Tx_Not_Approved",
      "type": "error"
    },
    {
      "anonymous": false,
      "inputs": [
        {
          "indexed": true,
          "internalType": "address",
          "name": "owner",
          "type": "address"
        },
        {
          "indexed": true,
          "internalType": "uint256",
          "name": "txIndex",
          "type": "uint256"
        }
      ],
      "name": "ApproveTransaction",
      "type": "event"
    },
    {
      "anonymous": false,
      "inputs": [
        {
          "indexed": true,
          "internalType": "address",
          "name": "owner",
          "type": "address"
        },
        {
          "indexed": true,
          "internalType": "uint256",
          "name": "txIndex",
          "type": "uint256"
        }
      ],
      "name": "DeleteTransaction",
      "type": "event"
    },
    {
      "anonymous": false,
      "inputs": [
        {
          "indexed": true,
          "internalType": "address",
          "name": "sender",
          "type": "address"
        },
        {
          "indexed": false,
          "internalType": "uint256",
          "name": "value",
          "type": "uint256"
        },
        {
          "indexed": false,
          "internalType": "uint256",
          "name": "balance",
          "type": "uint256"
        }
      ],
      "name": "Deposit",
      "type": "event"
    },
    {
      "anonymous": false,
      "inputs": [
        {
          "indexed": true,
          "internalType": "address",
          "name": "owner",
          "type": "address"
        },
        {
          "indexed": true,
          "internalType": "uint256",
          "name": "txIndex",
          "type": "uint256"
        }
      ],
      "name": "ExecuteTransaction",
      "type": "event"
    },
    {
      "anonymous": false,
      "inputs": [
        {
          "indexed": true,
          "internalType": "address",
          "name": "owner",
          "type": "address"
        },
        {
          "indexed": true,
          "internalType": "uint256",
          "name": "txIndex",
          "type": "uint256"
        },
        {
          "indexed": true,
          "internalType": "address",
          "name": "to",
          "type": "address"
        },
        {
          "indexed": false,
          "internalType": "uint256",
          "name": "value",
          "type": "uint256"
        },
        {
          "indexed": false,
          "internalType": "bytes",
          "name": "data",
          "type": "bytes"
        },
        {
          "indexed": false,
          "internalType": "enum Multisig.TransactionType",
          "name": "txType",
          "type": "uint8"
        }
      ],
      "name": "NewTransaction",
      "type": "event"
    },
    {
      "anonymous": false,
      "inputs": [
        {
          "indexed": true,
          "internalType": "address",
          "name": "owner",
          "type": "address"
        },
        {
          "indexed": true,
          "internalType": "uint256",
          "name": "txIndex",
          "type": "uint256"
        }
      ],
      "name": "UnApproveTransaction",
      "type": "event"
    },
    {
      "inputs": [
        {
          "internalType": "address",
          "name": "_to",
          "type": "address"
        },
        {
          "internalType": "uint256",
          "name": "_value",
          "type": "uint256"
        },
        {
          "internalType": "bytes",
          "name": "_data",
          "type": "bytes"
        },
        {
          "internalType": "address[]",
          "name": "_owners",
          "type": "address[]"
        },
        {
          "internalType": "uint256",
          "name": "_threshold",
          "type": "uint256"
        },
        {
          "internalType": "enum Multisig.TransactionType",
          "name": "_txType",
          "type": "uint8"
        }
      ],
      "name": "addTransaction",
      "outputs": [],
      "stateMutability": "nonpayable",
      "type": "function"
    },
    {
      "inputs": [
        {
          "internalType": "uint256",
          "name": "_txIndex",
          "type": "uint256"
        }
      ],
      "name": "approveTransaction",
      "outputs": [],
      "stateMutability": "nonpayable",
      "type": "function"
    },
    {
      "inputs": [
        {
          "internalType": "uint256",
          "name": "_txIndex",
          "type": "uint256"
        }
      ],
      "name": "deleteTransaction",
      "outputs": [],
      "stateMutability": "nonpayable",
      "type": "function"
    },
    {
      "inputs": [],
      "name": "deposit",
      "outputs": [],
      "stateMutability": "payable",
      "type": "function"
    },
    {
      "inputs": [
        {
          "internalType": "uint256",
          "name": "_txIndex",
          "type": "uint256"
        }
      ],
      "name": "executeTransaction",
      "outputs": [],
      "stateMutability": "nonpayable",
      "type": "function"
    },
    {
      "inputs": [],
      "name": "getOwners",
      "outputs": [
        {
          "internalType": "address[]",
          "name": "",
          "type": "address[]"
        }
      ],
      "stateMutability": "view",
      "type": "function"
    },
    {
      "inputs": [
        {
          "internalType": "uint256",
          "name": "_txIndex",
          "type": "uint256"
        }
      ],
      "name": "getTransaction",
      "outputs": [
        {
          "internalType": "address",
          "name": "to",
          "type": "address"
        },
        {
          "internalType": "uint256",
          "name": "value",
          "type": "uint256"
        },
        {
          "internalType": "bytes",
          "name": "data",
          "type": "bytes"
        },
        {
          "internalType": "bool",
          "name": "didExecute",
          "type": "bool"
        },
        {
          "internalType": "uint256",
          "name": "confirmationsCount",
          "type": "uint256"
        }
      ],
      "stateMutability": "view",
      "type": "function"
    },
    {
      "inputs": [],
      "name": "getTransactionCount",
      "outputs": [
        {
          "internalType": "uint256",
          "name": "",
          "type": "uint256"
        }
      ],
      "stateMutability": "view",
      "type": "function"
    },
    {
      "inputs": [],
      "name": "getTransactions",
      "outputs": [
        {
          "components": [
            {
              "internalType": "uint256",
              "name": "createdAt",
              "type": "uint256"
            },
            {
              "internalType": "bytes32",
              "name": "txHash",
              "type": "bytes32"
            },
            {
              "internalType": "uint256",
              "name": "index",
              "type": "uint256"
            },
            {
              "internalType": "address",
              "name": "to",
              "type": "address"
            },
            {
              "internalType": "uint256",
              "name": "value",
              "type": "uint256"
            },
            {
              "internalType": "bytes",
              "name": "data",
              "type": "bytes"
            },
            {
              "internalType": "bool",
              "name": "didExecute",
              "type": "bool"
            },
            {
              "internalType": "bool",
              "name": "isDeleted",
              "type": "bool"
            },
            {
              "internalType": "address[]",
              "name": "signers",
              "type": "address[]"
            },
            {
              "internalType": "address[]",
              "name": "owners",
              "type": "address[]"
            },
            {
              "internalType": "uint256",
              "name": "threshold",
              "type": "uint256"
            },
            {
              "internalType": "enum Multisig.TransactionType",
              "name": "txType",
              "type": "uint8"
            },
            {
              "internalType": "uint256",
              "name": "confirmationsCount",
              "type": "uint256"
            }
          ],
          "internalType": "struct Multisig.Tx[]",
          "name": "",
          "type": "tuple[]"
        }
      ],
      "stateMutability": "view",
      "type": "function"
    },
    {
      "inputs": [
        {
          "internalType": "uint256",
          "name": "",
          "type": "uint256"
        },
        {
          "internalType": "address",
          "name": "",
          "type": "address"
        }
      ],
      "name": "isApprovedByOwner",
      "outputs": [
        {
          "internalType": "bool",
          "name": "",
          "type": "bool"
        }
      ],
      "stateMutability": "view",
      "type": "function"
    },
    {
      "inputs": [
        {
          "internalType": "uint256",
          "name": "index",
          "type": "uint256"
        }
      ],
      "name": "isApprovedBySender",
      "outputs": [
        {
          "internalType": "bool",
          "name": "",
          "type": "bool"
        }
      ],
      "stateMutability": "view",
      "type": "function"
    },
    {
      "inputs": [
        {
          "internalType": "address",
          "name": "",
          "type": "address"
        }
      ],
      "name": "isOwner",
      "outputs": [
        {
          "internalType": "bool",
          "name": "",
          "type": "bool"
        }
      ],
      "stateMutability": "view",
      "type": "function"
    },
    {
      "inputs": [
        {
          "internalType": "uint256",
          "name": "",
          "type": "uint256"
        }
      ],
      "name": "owners",
      "outputs": [
        {
          "internalType": "address",
          "name": "",
          "type": "address"
        }
      ],
      "stateMutability": "view",
      "type": "function"
    },
    {
      "inputs": [
        {
          "internalType": "uint256",
          "name": "_txIndex",
          "type": "uint256"
        }
      ],
      "name": "revokeApproval",
      "outputs": [],
      "stateMutability": "nonpayable",
      "type": "function"
    },
    {
      "inputs": [],
      "name": "threshold",
      "outputs": [
        {
          "internalType": "uint256",
          "name": "",
          "type": "uint256"
        }
      ],
      "stateMutability": "view",
      "type": "function"
    },
    {
      "inputs": [
        {
          "internalType": "uint256",
          "name": "",
          "type": "uint256"
        }
      ],
      "name": "transactions",
      "outputs": [
        {
          "internalType": "uint256",
          "name": "createdAt",
          "type": "uint256"
        },
        {
          "internalType": "bytes32",
          "name": "txHash",
          "type": "bytes32"
        },
        {
          "internalType": "uint256",
          "name": "index",
          "type": "uint256"
        },
        {
          "internalType": "address",
          "name": "to",
          "type": "address"
        },
        {
          "internalType": "uint256",
          "name": "value",
          "type": "uint256"
        },
        {
          "internalType": "bytes",
          "name": "data",
          "type": "bytes"
        },
        {
          "internalType": "bool",
          "name": "didExecute",
          "type": "bool"
        },
        {
          "internalType": "bool",
          "name": "isDeleted",
          "type": "bool"
        },
        {
          "internalType": "uint256",
          "name": "threshold",
          "type": "uint256"
        },
        {
          "internalType": "enum Multisig.TransactionType",
          "name": "txType",
          "type": "uint8"
        },
        {
          "internalType": "uint256",
          "name": "confirmationsCount",
          "type": "uint256"
        }
      ],
      "stateMutability": "view",
      "type": "function"
    }
  ],
  "bytecode": "0x60806040523480156200001157600080fd5b506040516200359a3803806200359a8339818101604052810190620000379190620004e3565b60008251141562000074576040517fbd8f717200000000000000000000000000000000000000000000000000000000815260040160405180910390fd5b815181118062000085575060008111155b15620000bd576040517fafa0f7ed00000000000000000000000000000000000000000000000000000000815260040160405180910390fd5b60005b8251811015620002aa576000838281518110620000e257620000e162000549565b5b60200260200101519050600073ffffffffffffffffffffffffffffffffffffffff168173ffffffffffffffffffffffffffffffffffffffff16141562000154576040517f7e4b1d7600000000000000000000000000000000000000000000000000000000815260040160405180910390fd5b600160008273ffffffffffffffffffffffffffffffffffffffff1673ffffffffffffffffffffffffffffffffffffffff16815260200190815260200160002060009054906101000a900460ff1615620001d9576040517f9fde231d00000000000000000000000000000000000000000000000000000000815260040160405180910390fd5b60018060008373ffffffffffffffffffffffffffffffffffffffff1673ffffffffffffffffffffffffffffffffffffffff16815260200190815260200160002060006101000a81548160ff0219169083151502179055506000819080600181540180825580915050600190039060005260206000200160009091909190916101000a81548173ffffffffffffffffffffffffffffffffffffffff021916908373ffffffffffffffffffffffffffffffffffffffff160217905550508080620002a190620005a7565b915050620000c0565b50806002819055505050620005f5565b6000604051905090565b600080fd5b600080fd5b600080fd5b6000601f19601f8301169050919050565b7f4e487b7100000000000000000000000000000000000000000000000000000000600052604160045260246000fd5b6200031e82620002d3565b810181811067ffffffffffffffff8211171562000340576200033f620002e4565b5b80604052505050565b600062000355620002ba565b905062000363828262000313565b919050565b600067ffffffffffffffff821115620003865762000385620002e4565b5b602082029050602081019050919050565b600080fd5b600073ffffffffffffffffffffffffffffffffffffffff82169050919050565b6000620003c9826200039c565b9050919050565b620003db81620003bc565b8114620003e757600080fd5b50565b600081519050620003fb81620003d0565b92915050565b600062000418620004128462000368565b62000349565b905080838252602082019050602084028301858111156200043e576200043d62000397565b5b835b818110156200046b5780620004568882620003ea565b84526020840193505060208101905062000440565b5050509392505050565b600082601f8301126200048d576200048c620002ce565b5b81516200049f84826020860162000401565b91505092915050565b6000819050919050565b620004bd81620004a8565b8114620004c957600080fd5b50565b600081519050620004dd81620004b2565b92915050565b60008060408385031215620004fd57620004fc620002c4565b5b600083015167ffffffffffffffff8111156200051e576200051d620002c9565b5b6200052c8582860162000475565b92505060206200053f85828601620004cc565b9150509250929050565b7f4e487b7100000000000000000000000000000000000000000000000000000000600052603260045260246000fd5b7f4e487b7100000000000000000000000000000000000000000000000000000000600052601160045260246000fd5b6000620005b482620004a8565b91507fffffffffffffffffffffffffffffffffffffffffffffffffffffffffffffffff821415620005ea57620005e962000578565b5b600182019050919050565b612f9580620006056000396000f3fe6080604052600436106100f25760003560e01c806367aadc141161008a578063b1e130fc11610059578063b1e130fc1461035d578063d0e30db014610386578063df91143f14610390578063ee22610b146103cd576100f2565b806367aadc141461029757806383920e90146102c05780639ace38c2146102eb578063a0e67e2b14610332576100f2565b80632e7700f0116100c65780632e7700f0146101c35780632f54bf6e146101ee57806333ea3dc81461022b57806342cde4e81461026c576100f2565b8062e9c006146100f75780630168521114610120578063025e7c271461015d578063242232d11461019a575b600080fd5b34801561010357600080fd5b5061011e600480360381019061011991906121e5565b6103f6565b005b34801561012c57600080fd5b50610147600480360381019061014291906121e5565b610637565b604051610154919061222d565b60405180910390f35b34801561016957600080fd5b50610184600480360381019061017f91906121e5565b61069e565b6040516101919190612289565b60405180910390f35b3480156101a657600080fd5b506101c160048036038101906101bc91906121e5565b6106dd565b005b3480156101cf57600080fd5b506101d86109fb565b6040516101e591906122b3565b60405180910390f35b3480156101fa57600080fd5b50610215600480360381019061021091906122fa565b610a08565b604051610222919061222d565b60405180910390f35b34801561023757600080fd5b50610252600480360381019061024d91906121e5565b610a28565b6040516102639594939291906123c0565b60405180910390f35b34801561027857600080fd5b50610281610b3b565b60405161028e91906122b3565b60405180910390f35b3480156102a357600080fd5b506102be60048036038101906102b9919061263c565b610b41565b005b3480156102cc57600080fd5b506102d5610eb5565b6040516102e29190612aa0565b60405180910390f35b3480156102f757600080fd5b50610312600480360381019061030d91906121e5565b6111c6565b6040516103299b9a99989796959493929190612ae0565b60405180910390f35b34801561033e57600080fd5b506103476112ff565b6040516103549190612c01565b60405180910390f35b34801561036957600080fd5b50610384600480360381019061037f91906121e5565b61138d565b005b61038e611724565b005b34801561039c57600080fd5b506103b760048036038101906103b29190612c23565b611776565b6040516103c4919061222d565b60405180910390f35b3480156103d957600080fd5b506103f460048036038101906103ef91906121e5565b6117a5565b005b600160003373ffffffffffffffffffffffffffffffffffffffff1673ffffffffffffffffffffffffffffffffffffffff16815260200190815260200160002060009054906101000a900460ff16610479576040517fb87b076d00000000000000000000000000000000000000000000000000000000815260040160405180910390fd5b8060048054905081106104b8576040517fc304076d00000000000000000000000000000000000000000000000000000000815260040160405180910390fd5b81600481815481106104cd576104cc612c63565b5b90600052602060002090600c020160060160009054906101000a900460ff1615610523576040517fecf55dc000000000000000000000000000000000000000000000000000000000815260040160405180910390fd5b60006004848154811061053957610538612c63565b5b90600052602060002090600c020190508060060160019054906101000a900460ff1615610592576040517fa7d6531f00000000000000000000000000000000000000000000000000000000815260040160405180910390fd5b600081600b0154146105d0576040517f016cba4100000000000000000000000000000000000000000000000000000000815260040160405180910390fd5b60018160060160016101000a81548160ff021916908315150217905550833373ffffffffffffffffffffffffffffffffffffffff167f7c709d18930bc948c17b828478f75d33a85c7a37dd8aea2ed2d21e507898c2e560405160405180910390a350505050565b60006005600083815260200190815260200160002060003373ffffffffffffffffffffffffffffffffffffffff1673ffffffffffffffffffffffffffffffffffffffff16815260200190815260200160002060009054906101000a900460ff169050919050565b600081815481106106ae57600080fd5b906000526020600020016000915054906101000a900473ffffffffffffffffffffffffffffffffffffffff1681565b600160003373ffffffffffffffffffffffffffffffffffffffff1673ffffffffffffffffffffffffffffffffffffffff16815260200190815260200160002060009054906101000a900460ff16610760576040517fb87b076d00000000000000000000000000000000000000000000000000000000815260040160405180910390fd5b80600480549050811061079f576040517fc304076d00000000000000000000000000000000000000000000000000000000815260040160405180910390fd5b81600481815481106107b4576107b3612c63565b5b90600052602060002090600c020160060160009054906101000a900460ff161561080a576040517fecf55dc000000000000000000000000000000000000000000000000000000000815260040160405180910390fd5b826005600082815260200190815260200160002060003373ffffffffffffffffffffffffffffffffffffffff1673ffffffffffffffffffffffffffffffffffffffff16815260200190815260200160002060009054906101000a900460ff16156108a0576040517feeda094400000000000000000000000000000000000000000000000000000000815260040160405180910390fd5b6000600485815481106108b6576108b5612c63565b5b90600052602060002090600c02019050600181600b0160008282546108db9190612cc1565b9250508190555060016005600087815260200190815260200160002060003373ffffffffffffffffffffffffffffffffffffffff1673ffffffffffffffffffffffffffffffffffffffff16815260200190815260200160002060006101000a81548160ff02191690831515021790555080600701339080600181540180825580915050600190039060005260206000200160009091909190916101000a81548173ffffffffffffffffffffffffffffffffffffffff021916908373ffffffffffffffffffffffffffffffffffffffff160217905550843373ffffffffffffffffffffffffffffffffffffffff167ffa624aadd8a0eae4ee975eae5cf13c9803b361b7fa2d832427db6207c088219360405160405180910390a35050505050565b6000600480549050905090565b60016020528060005260406000206000915054906101000a900460ff1681565b6000806060600080600060048781548110610a4657610a45612c63565b5b90600052602060002090600c020190508060030160009054906101000a900473ffffffffffffffffffffffffffffffffffffffff168160040154826005018360060160009054906101000a900460ff1684600b0154828054610aa790612d46565b80601f0160208091040260200160405190810160405280929190818152602001828054610ad390612d46565b8015610b205780601f10610af557610100808354040283529160200191610b20565b820191906000526020600020905b815481529060010190602001808311610b0357829003601f168201915b50505050509250955095509550955095505091939590929450565b60025481565b600160003373ffffffffffffffffffffffffffffffffffffffff1673ffffffffffffffffffffffffffffffffffffffff16815260200190815260200160002060009054906101000a900460ff16610bc4576040517fb87b076d00000000000000000000000000000000000000000000000000000000815260040160405180910390fd5b600060048054905090506004604051806101a001604052804281526020018342604051602001610bf5929190612d99565b6040516020818303038152906040528051906020012081526020018381526020018973ffffffffffffffffffffffffffffffffffffffff168152602001888152602001878152602001600015158152602001600015158152602001600067ffffffffffffffff811115610c6b57610c6a612424565b5b604051908082528060200260200182016040528015610c995781602001602082028036833780820191505090505b508152602001868152602001858152602001846003811115610cbe57610cbd61286c565b5b8152602001600081525090806001815401808255809150506001900390600052602060002090600c020160009091909190915060008201518160000155602082015181600101556040820151816002015560608201518160030160006101000a81548173ffffffffffffffffffffffffffffffffffffffff021916908373ffffffffffffffffffffffffffffffffffffffff1602179055506080820151816004015560a0820151816005019080519060200190610d7c92919061204d565b5060c08201518160060160006101000a81548160ff02191690831515021790555060e08201518160060160016101000a81548160ff021916908315150217905550610100820151816007019080519060200190610dda9291906120d3565b50610120820151816008019080519060200190610df89291906120d3565b50610140820151816009015561016082015181600a0160006101000a81548160ff02191690836003811115610e3057610e2f61286c565b5b021790555061018082015181600b015550508673ffffffffffffffffffffffffffffffffffffffff16813373ffffffffffffffffffffffffffffffffffffffff167fc989d135c1b3b2b228ef4f07a7ceed341584db4f68e43211547396604ba7208c898987604051610ea493929190612dc5565b60405180910390a450505050505050565b60606004805480602002602001604051908101604052809291908181526020016000905b828210156111bd57838290600052602060002090600c0201604051806101a00160405290816000820154815260200160018201548152602001600282015481526020016003820160009054906101000a900473ffffffffffffffffffffffffffffffffffffffff1673ffffffffffffffffffffffffffffffffffffffff1673ffffffffffffffffffffffffffffffffffffffff16815260200160048201548152602001600582018054610f8b90612d46565b80601f0160208091040260200160405190810160405280929190818152602001828054610fb790612d46565b80156110045780601f10610fd957610100808354040283529160200191611004565b820191906000526020600020905b815481529060010190602001808311610fe757829003601f168201915b505050505081526020016006820160009054906101000a900460ff161515151581526020016006820160019054906101000a900460ff16151515158152602001600782018054806020026020016040519081016040528092919081815260200182805480156110c857602002820191906000526020600020905b8160009054906101000a900473ffffffffffffffffffffffffffffffffffffffff1673ffffffffffffffffffffffffffffffffffffffff168152602001906001019080831161107e575b505050505081526020016008820180548060200260200160405190810160405280929190818152602001828054801561115657602002820191906000526020600020905b8160009054906101000a900473ffffffffffffffffffffffffffffffffffffffff1673ffffffffffffffffffffffffffffffffffffffff168152602001906001019080831161110c575b5050505050815260200160098201548152602001600a820160009054906101000a900460ff16600381111561118e5761118d61286c565b5b60038111156111a05761119f61286c565b5b8152602001600b8201548152505081526020019060010190610ed9565b50505050905090565b600481815481106111d657600080fd5b90600052602060002090600c02016000915090508060000154908060010154908060020154908060030160009054906101000a900473ffffffffffffffffffffffffffffffffffffffff169080600401549080600501805461123790612d46565b80601f016020809104026020016040519081016040528092919081815260200182805461126390612d46565b80156112b05780601f10611285576101008083540402835291602001916112b0565b820191906000526020600020905b81548152906001019060200180831161129357829003601f168201915b5050505050908060060160009054906101000a900460ff16908060060160019054906101000a900460ff169080600901549080600a0160009054906101000a900460ff169080600b015490508b565b6060600080548060200260200160405190810160405280929190818152602001828054801561138357602002820191906000526020600020905b8160009054906101000a900473ffffffffffffffffffffffffffffffffffffffff1673ffffffffffffffffffffffffffffffffffffffff1681526020019060010190808311611339575b5050505050905090565b600160003373ffffffffffffffffffffffffffffffffffffffff1673ffffffffffffffffffffffffffffffffffffffff16815260200190815260200160002060009054906101000a900460ff16611410576040517fb87b076d00000000000000000000000000000000000000000000000000000000815260040160405180910390fd5b80600480549050811061144f576040517fc304076d00000000000000000000000000000000000000000000000000000000815260040160405180910390fd5b816004818154811061146457611463612c63565b5b90600052602060002090600c020160060160009054906101000a900460ff16156114ba576040517fecf55dc000000000000000000000000000000000000000000000000000000000815260040160405180910390fd5b6000600484815481106114d0576114cf612c63565b5b90600052602060002090600c020190506005600085815260200190815260200160002060003373ffffffffffffffffffffffffffffffffffffffff1673ffffffffffffffffffffffffffffffffffffffff16815260200190815260200160002060009054906101000a900460ff16611574576040517f5ccba97200000000000000000000000000000000000000000000000000000000815260040160405180910390fd5b600181600b0160008282546115899190612e03565b9250508190555060006005600086815260200190815260200160002060003373ffffffffffffffffffffffffffffffffffffffff1673ffffffffffffffffffffffffffffffffffffffff16815260200190815260200160002060006101000a81548160ff02191690831515021790555060005b816007018054905081116116d9573373ffffffffffffffffffffffffffffffffffffffff1682600701828154811061163757611636612c63565b5b9060005260206000200160009054906101000a900473ffffffffffffffffffffffffffffffffffffffff1673ffffffffffffffffffffffffffffffffffffffff1614156116c65781600701818154811061169457611693612c63565b5b9060005260206000200160006101000a81549073ffffffffffffffffffffffffffffffffffffffff02191690556116d9565b80806116d190612e37565b9150506115fc565b50833373ffffffffffffffffffffffffffffffffffffffff167ff3370ef2e145eb508f15cc1f210b90a3d6ca37e14ec4b695fb529df41e08d58860405160405180910390a350505050565b3373ffffffffffffffffffffffffffffffffffffffff167f90890809c654f11d6e72a28fa60149770a0d11ec6c92319d6ceb2bb0a4ea1a15344760405161176c929190612e80565b60405180910390a2565b60056020528160005260406000206020528060005260406000206000915091509054906101000a900460ff1681565b600160003373ffffffffffffffffffffffffffffffffffffffff1673ffffffffffffffffffffffffffffffffffffffff16815260200190815260200160002060009054906101000a900460ff16611828576040517fb87b076d00000000000000000000000000000000000000000000000000000000815260040160405180910390fd5b806004805490508110611867576040517fc304076d00000000000000000000000000000000000000000000000000000000815260040160405180910390fd5b816004818154811061187c5761187b612c63565b5b90600052602060002090600c020160060160009054906101000a900460ff16156118d2576040517fecf55dc000000000000000000000000000000000000000000000000000000000815260040160405180910390fd5b6000600484815481106118e8576118e7612c63565b5b90600052602060002090600c0201905060025481600b01541015611938576040517f9d36c94b00000000000000000000000000000000000000000000000000000000815260040160405180910390fd5b8060060160019054906101000a900460ff1615611981576040517ff7bb06c100000000000000000000000000000000000000000000000000000000815260040160405180910390fd5b60018160060160006101000a81548160ff0219169083151502179055506003808111156119b1576119b061286c565b5b81600a0160009054906101000a900460ff1660038111156119d5576119d461286c565b5b1415611aad5760008160030160009054906101000a900473ffffffffffffffffffffffffffffffffffffffff1673ffffffffffffffffffffffffffffffffffffffff16826004015483600501604051611a2e9190612f48565b60006040518083038185875af1925050503d8060008114611a6b576040519150601f19603f3d011682016040523d82523d6000602084013e611a70565b606091505b5050905080611aab576040517f6543559d00000000000000000000000000000000000000000000000000000000815260040160405180910390fd5b505b60006003811115611ac157611ac061286c565b5b81600a0160009054906101000a900460ff166003811115611ae557611ae461286c565b5b1415611b7d57611b7c81600801805480602002602001604051908101604052809291908181526020018280548015611b7257602002820191906000526020600020905b8160009054906101000a900473ffffffffffffffffffffffffffffffffffffffff1673ffffffffffffffffffffffffffffffffffffffff1681526020019060010190808311611b28575b5050505050611cc1565b5b60016003811115611b9157611b9061286c565b5b81600a0160009054906101000a900460ff166003811115611bb557611bb461286c565b5b1415611bc957611bc88160090154611f75565b5b60026003811115611bdd57611bdc61286c565b5b81600a0160009054906101000a900460ff166003811115611c0157611c0061286c565b5b1415611c77578060030160009054906101000a900473ffffffffffffffffffffffffffffffffffffffff1673ffffffffffffffffffffffffffffffffffffffff166108fc82600401549081150290604051600060405180830381858888f19350505050158015611c75573d6000803e3d6000fd5b505b833373ffffffffffffffffffffffffffffffffffffffff167f5445f318f4f5fcfb66592e68e0cc5822aa15664039bd5f0ffde24c5a8142b1ac60405160405180910390a350505050565b600160003373ffffffffffffffffffffffffffffffffffffffff1673ffffffffffffffffffffffffffffffffffffffff16815260200190815260200160002060009054906101000a900460ff16611d44576040517fb87b076d00000000000000000000000000000000000000000000000000000000815260040160405180910390fd5b600080611d51919061215d565b600081511415611d8d576040517fbd8f717200000000000000000000000000000000000000000000000000000000815260040160405180910390fd5b60005b8151811015611f71576000828281518110611dae57611dad612c63565b5b60200260200101519050600073ffffffffffffffffffffffffffffffffffffffff168173ffffffffffffffffffffffffffffffffffffffff161415611e1f576040517f7e4b1d7600000000000000000000000000000000000000000000000000000000815260040160405180910390fd5b600160008273ffffffffffffffffffffffffffffffffffffffff1673ffffffffffffffffffffffffffffffffffffffff16815260200190815260200160002060009054906101000a900460ff1615611ea3576040517f9fde231d00000000000000000000000000000000000000000000000000000000815260040160405180910390fd5b60018060008373ffffffffffffffffffffffffffffffffffffffff1673ffffffffffffffffffffffffffffffffffffffff16815260200190815260200160002060006101000a81548160ff0219169083151502179055506000819080600181540180825580915050600190039060005260206000200160009091909190916101000a81548173ffffffffffffffffffffffffffffffffffffffff021916908373ffffffffffffffffffffffffffffffffffffffff160217905550508080611f6990612e37565b915050611d90565b5050565b600160003373ffffffffffffffffffffffffffffffffffffffff1673ffffffffffffffffffffffffffffffffffffffff16815260200190815260200160002060009054906101000a900460ff16611ff8576040517fb87b076d00000000000000000000000000000000000000000000000000000000815260040160405180910390fd5b60008054905081118061200c575060008111155b15612043576040517fafa0f7ed00000000000000000000000000000000000000000000000000000000815260040160405180910390fd5b8060028190555050565b82805461205990612d46565b90600052602060002090601f01602090048101928261207b57600085556120c2565b82601f1061209457805160ff19168380011785556120c2565b828001600101855582156120c2579182015b828111156120c15782518255916020019190600101906120a6565b5b5090506120cf919061217e565b5090565b82805482825590600052602060002090810192821561214c579160200282015b8281111561214b5782518260006101000a81548173ffffffffffffffffffffffffffffffffffffffff021916908373ffffffffffffffffffffffffffffffffffffffff160217905550916020019190600101906120f3565b5b509050612159919061217e565b5090565b508054600082559060005260206000209081019061217b919061217e565b50565b5b8082111561219757600081600090555060010161217f565b5090565b6000604051905090565b600080fd5b600080fd5b6000819050919050565b6121c2816121af565b81146121cd57600080fd5b50565b6000813590506121df816121b9565b92915050565b6000602082840312156121fb576121fa6121a5565b5b6000612209848285016121d0565b91505092915050565b60008115159050919050565b61222781612212565b82525050565b6000602082019050612242600083018461221e565b92915050565b600073ffffffffffffffffffffffffffffffffffffffff82169050919050565b600061227382612248565b9050919050565b61228381612268565b82525050565b600060208201905061229e600083018461227a565b92915050565b6122ad816121af565b82525050565b60006020820190506122c860008301846122a4565b92915050565b6122d781612268565b81146122e257600080fd5b50565b6000813590506122f4816122ce565b92915050565b6000602082840312156123105761230f6121a5565b5b600061231e848285016122e5565b91505092915050565b600081519050919050565b600082825260208201905092915050565b60005b83811015612361578082015181840152602081019050612346565b83811115612370576000848401525b50505050565b6000601f19601f8301169050919050565b600061239282612327565b61239c8185612332565b93506123ac818560208601612343565b6123b581612376565b840191505092915050565b600060a0820190506123d5600083018861227a565b6123e260208301876122a4565b81810360408301526123f48186612387565b9050612403606083018561221e565b61241060808301846122a4565b9695505050505050565b600080fd5b600080fd5b7f4e487b7100000000000000000000000000000000000000000000000000000000600052604160045260246000fd5b61245c82612376565b810181811067ffffffffffffffff8211171561247b5761247a612424565b5b80604052505050565b600061248e61219b565b905061249a8282612453565b919050565b600067ffffffffffffffff8211156124ba576124b9612424565b5b6124c382612376565b9050602081019050919050565b82818337600083830152505050565b60006124f26124ed8461249f565b612484565b90508281526020810184848401111561250e5761250d61241f565b5b6125198482856124d0565b509392505050565b600082601f8301126125365761253561241a565b5b81356125468482602086016124df565b91505092915050565b600067ffffffffffffffff82111561256a57612569612424565b5b602082029050602081019050919050565b600080fd5b600061259361258e8461254f565b612484565b905080838252602082019050602084028301858111156125b6576125b561257b565b5b835b818110156125df57806125cb88826122e5565b8452602084019350506020810190506125b8565b5050509392505050565b600082601f8301126125fe576125fd61241a565b5b813561260e848260208601612580565b91505092915050565b6004811061262457600080fd5b50565b60008135905061263681612617565b92915050565b60008060008060008060c08789031215612659576126586121a5565b5b600061266789828a016122e5565b965050602061267889828a016121d0565b955050604087013567ffffffffffffffff811115612699576126986121aa565b5b6126a589828a01612521565b945050606087013567ffffffffffffffff8111156126c6576126c56121aa565b5b6126d289828a016125e9565b93505060806126e389828a016121d0565b92505060a06126f489828a01612627565b9150509295509295509295565b600081519050919050565b600082825260208201905092915050565b6000819050602082019050919050565b612736816121af565b82525050565b6000819050919050565b61274f8161273c565b82525050565b61275e81612268565b82525050565b600082825260208201905092915050565b600061278082612327565b61278a8185612764565b935061279a818560208601612343565b6127a381612376565b840191505092915050565b6127b781612212565b82525050565b600081519050919050565b600082825260208201905092915050565b6000819050602082019050919050565b60006127f58383612755565b60208301905092915050565b6000602082019050919050565b6000612819826127bd565b61282381856127c8565b935061282e836127d9565b8060005b8381101561285f57815161284688826127e9565b975061285183612801565b925050600181019050612832565b5085935050505092915050565b7f4e487b7100000000000000000000000000000000000000000000000000000000600052602160045260246000fd5b600481106128ac576128ab61286c565b5b50565b60008190506128bd8261289b565b919050565b60006128cd826128af565b9050919050565b6128dd816128c2565b82525050565b60006101a0830160008301516128fc600086018261272d565b50602083015161290f6020860182612746565b506040830151612922604086018261272d565b5060608301516129356060860182612755565b506080830151612948608086018261272d565b5060a083015184820360a08601526129608282612775565b91505060c083015161297560c08601826127ae565b5060e083015161298860e08601826127ae565b506101008301518482036101008601526129a2828261280e565b9150506101208301518482036101208601526129be828261280e565b9150506101408301516129d561014086018261272d565b506101608301516129ea6101608601826128d4565b506101808301516129ff61018086018261272d565b508091505092915050565b6000612a1683836128e3565b905092915050565b6000602082019050919050565b6000612a3682612701565b612a40818561270c565b935083602082028501612a528561271d565b8060005b85811015612a8e5784840389528151612a6f8582612a0a565b9450612a7a83612a1e565b925060208a01995050600181019050612a56565b50829750879550505050505092915050565b60006020820190508181036000830152612aba8184612a2b565b905092915050565b612acb8161273c565b82525050565b612ada816128c2565b82525050565b600061016082019050612af6600083018e6122a4565b612b03602083018d612ac2565b612b10604083018c6122a4565b612b1d606083018b61227a565b612b2a608083018a6122a4565b81810360a0830152612b3c8189612387565b9050612b4b60c083018861221e565b612b5860e083018761221e565b612b666101008301866122a4565b612b74610120830185612ad1565b612b826101408301846122a4565b9c9b505050505050505050505050565b600082825260208201905092915050565b6000612bae826127bd565b612bb88185612b92565b9350612bc3836127d9565b8060005b83811015612bf4578151612bdb88826127e9565b9750612be683612801565b925050600181019050612bc7565b5085935050505092915050565b60006020820190508181036000830152612c1b8184612ba3565b905092915050565b60008060408385031215612c3a57612c396121a5565b5b6000612c48858286016121d0565b9250506020612c59858286016122e5565b9150509250929050565b7f4e487b7100000000000000000000000000000000000000000000000000000000600052603260045260246000fd5b7f4e487b7100000000000000000000000000000000000000000000000000000000600052601160045260246000fd5b6000612ccc826121af565b9150612cd7836121af565b9250827fffffffffffffffffffffffffffffffffffffffffffffffffffffffffffffffff03821115612d0c57612d0b612c92565b5b828201905092915050565b7f4e487b7100000000000000000000000000000000000000000000000000000000600052602260045260246000fd5b60006002820490506001821680612d5e57607f821691505b60208210811415612d7257612d71612d17565b5b50919050565b6000819050919050565b612d93612d8e826121af565b612d78565b82525050565b6000612da58285612d82565b602082019150612db58284612d82565b6020820191508190509392505050565b6000606082019050612dda60008301866122a4565b8181036020830152612dec8185612387565b9050612dfb6040830184612ad1565b949350505050565b6000612e0e826121af565b9150612e19836121af565b925082821015612e2c57612e2b612c92565b5b828203905092915050565b6000612e42826121af565b91507fffffffffffffffffffffffffffffffffffffffffffffffffffffffffffffffff821415612e7557612e74612c92565b5b600182019050919050565b6000604082019050612e9560008301856122a4565b612ea260208301846122a4565b9392505050565b600081905092915050565b60008190508160005260206000209050919050565b60008154612ed681612d46565b612ee08186612ea9565b94506001821660008114612efb5760018114612f0c57612f3f565b60ff19831686528186019350612f3f565b612f1585612eb4565b60005b83811015612f3757815481890152600182019150602081019050612f18565b838801955050505b50505092915050565b6000612f548284612ec9565b91508190509291505056fea26469706673582212206f429954e3b7a633c46e76314bb57cbe0f93ceab05bffa7014bed3ae4d01553964736f6c63430008090033",
  "linkReferences": {},
  "deployedLinkReferences": {}
}